:020000040800F2
:1000000000280020A1180008B1160008B716000843
:10001000BD160008C3160008C9160008000000003D
:10002000000000000000000000000000CF160008E3
:10003000DB16000800000000E7160008F3160008B1
:10004000E9180008E9180008E9180008E91800088C
:10005000E9180008E9180008E9180008E91800087C
:10006000E9180008E9180008E91800080117000855
:10007000E9180008E9180008E9180008E91800085C
:10008000E9180008E9180008E9180008E91800084C
:10009000E9180008E9180008E9180008E91800083C
:1000A000E9180008E9180008E9180008E91800082C
:1000B000E9180008E918000800000000E918000825
:1000C000E91800080000000000000000E91800081E
:1000D00000000000E9180008E9180008000000000E
:1000E000E9180008E9180008E918000800000000F5
:1000F0000000000000000000000000000000000000
:0C01000000000000000000005FF808F1A3
:1001100010B5054C237833B9044B13B10448AFF341
:1001200000800123237010BDD401002000000000D6
:10013000BC6F000808B5034B1BB103490348AFF37C
:10014000008008BD00000000D8010020BC6F00083E
:10015000034613F8012B002AFBD1181A0138704707
:1001600081F0004102E000BF83F0004330B54FEA68
:1001700041044FEA430594EA050F08BF90EA020FD5
:100180001FBF54EA000C55EA020C7FEA645C7FEA68
:10019000655C00F0E2804FEA5454D4EB5555B8BF8B
:1001A0006D420CDD2C4480EA020281EA030382EAFC
:1001B000000083EA010180EA020281EA0303362D8E
:1001C00088BF30BD11F0004F4FEA01314FF4801C61
:1001D0004CEA113102D0404261EB410113F0004F73
:1001E0004FEA03334CEA133302D0524263EB43032A
:1001F00094EA050F00F0A780A4F10104D5F1200EC8
:100200000DDB02FA0EFC22FA05F2801841F1000122
:1002100003FA0EF2801843FA05F359410EE0A5F1F6
:1002200020050EF1200E012A03FA0EFC28BF4CF027
:10023000020C43FA05F3C01851EBE37101F00045DD
:1002400007D54FF0000EDCF1000C7EEB00006EEBEA
:100250000101B1F5801F1BD3B1F5001F0CD3490874
:100260005FEA30004FEA3C0C04F101044FEA4452CB
:1002700012F5800F80F09A80BCF1004F08BF5FEA52
:10028000500C50F1000041EB045141EA050130BD32
:100290005FEA4C0C404141EB0101013C28BFB1F544
:1002A000801FE9D291F0000F04BF01460020B1FA8F
:1002B00081F308BF2033A3F10B03B3F120020CDA62
:1002C0000C3208DD02F1140CC2F10C0201FA0CF040
:1002D00021FA02F10CE002F11402D8BFC2F1200CA5
:1002E00001FA02F120FA0CFCDCBF41EA0C0190405B
:1002F000E41AA2BF01EB0451294330BD6FEA0404A4
:100300001F3C1CDA0C340EDC04F11404C4F120028E
:1003100020FA04F001FA02F340EA030021FA04F3A0
:1003200045EA030130BDC4F10C04C4F1200220FAF7
:1003300002F001FA04F340EA0300294630BD21FA35
:1003400004F0294630BD94F0000F83F4801306BFFB
:1003500081F480110134013D4EE77FEA645C18BFEF
:100360007FEA655C29D094EA050F08BF90EA020F86
:1003700005D054EA000C04BF1946104630BD91EA7E
:10038000030F1EBF0021002030BD5FEA545C05D181
:100390004000494128BF41F0004130BD14F58004C0
:1003A0003CBF01F5801130BD01F0004545F0FE4134
:1003B00041F470014FF0000030BD7FEA645C1ABF69
:1003C000194610467FEA655C1CBF0B46024650EAA0
:1003D000013406BF52EA033591EA030F41F40021CC
:1003E00030BD00BF90F0000F04BF0021704730B552
:1003F0004FF4806404F132044FF000054FF0000127
:1004000050E700BF90F0000F04BF0021704730B5E7
:100410004FF4806404F1320410F0004548BF4042BC
:100420004FF000013EE700BF42004FEAE2014FEA11
:1004300031014FEA02701FBF12F07F4393F07F4FEC
:1004400081F06051704732F07F4208BF704793F0EF
:100450007F4F04BF41F40021704730B54FF4607402
:1004600001F0004521F000411CE700BF50EA010205
:1004700008BF704730B54FF000050AE050EA0102AE
:1004800008BF704730B511F0004502D5404261EB1E
:1004900041014FF4806404F132045FEA915C3FF45F
:1004A000D8AE4FF003025FEADC0C18BF03325FEAFC
:1004B000DC0C18BF033202EBDC02C2F1200300FAAD
:1004C00003FC20FA02F001FA03FE40EA0E0021FAD2
:1004D00002F11444BDE600BF70B54FF0FF0C4CF4C0
:1004E000E06C1CEA11541DBF1CEA135594EA0C0F72
:1004F00095EA0C0F00F0DEF82C4481EA030621EAAD
:100500004C5123EA4C5350EA013518BF52EA0335E7
:1005100041F4801143F4801338D0A0FB02CE4FF099
:100520000005E1FB02E506F00042E0FB03E54FF0C9
:100530000006E1FB03569CF0000F18BF4EF0010EC1
:10054000A4F1FF04B6F5007F64F5407404D25FEABD
:100550004E0E6D4146EB060642EAC62141EA555170
:100560004FEAC52040EA5E504FEACE2EB4F1FD0CB2
:1005700088BFBCF5E06F1ED8BEF1004F08BF5FEA30
:10058000500E50F1000041EB045170BD06F00046E2
:1005900046EA010140EA020081EA0301B4EB5C048F
:1005A000C2BFD4EB0C0541EA045170BD41F4801187
:1005B0004FF0000E013C00F3AB8014F1360FDEBFAC
:1005C000002001F0004170BDC4F10004203C35DA88
:1005D0000C341BDC04F11404C4F1200500FA05F30B
:1005E00020FA04F001FA05F240EA020001F00042AC
:1005F00021F0004110EBD37021FA04F642EB060122
:100600005EEA430E08BF20EAD37070BDC4F10C044B
:10061000C4F1200500FA04F320FA05F001FA04F20F
:1006200040EA020001F0004110EBD37041F10001FB
:100630005EEA430E08BF20EAD37070BDC4F1200506
:1006400000FA05F24EEA020E20FA04F301FA05F26E
:1006500043EA020321FA04F001F0004121FA04F216
:1006600020EA020000EBD3705EEA430E08BF20EAE6
:10067000D37070BD94F0000F0FD101F00046400020
:1006800041EB010111F4801F08BF013CF7D041EAA2
:10069000060195F0000F18BF704703F000465200A6
:1006A00043EB030313F4801F08BF013DF7D043EA77
:1006B0000603704794EA0C0F0CEA135518BF95EA2D
:1006C0000C0F0CD050EA410618BF52EA4306D1D1B4
:1006D00081EA030101F000414FF0000070BD50EAD3
:1006E000410606BF1046194652EA430619D094EA5D
:1006F0000C0F02D150EA013613D195EA0C0F05D147
:1007000052EA03361CBF104619460AD181EA03019A
:1007100001F0004141F0FE4141F470014FF0000052
:1007200070BD41F0FE4141F4780170BD70B54FF0ED
:10073000FF0C4CF4E06C1CEA11541DBF1CEA13556D
:1007400094EA0C0F95EA0C0F00F0A7F8A4EB05044F
:1007500081EA030E52EA03354FEA013100F0888046
:100760004FEA03334FF0805545EA131343EA12630F
:100770004FEA022245EA111545EA10654FEA0026C4
:100780000EF000419D4208BF964244F1FD0404F57D
:10079000407402D25B084FEA3202B61A65EB0305D9
:1007A0005B084FEA32024FF480104FF4002CB6EB96
:1007B000020E75EB030E22BFB61A754640EA0C0016
:1007C0005B084FEA3202B6EB020E75EB030E22BF56
:1007D000B61A754640EA5C005B084FEA3202B6EB97
:1007E000020E75EB030E22BFB61A754640EA9C0056
:1007F0005B084FEA3202B6EB020E75EB030E22BF26
:10080000B61A754640EADC0055EA060E18D04FEAE3
:10081000051545EA16754FEA06164FEAC30343EA83
:1008200052734FEAC2025FEA1C1CC0D111F4801F50
:100830000BD141EA00014FF000004FF0004CB6E749
:1008400011F4801F04BF01430020B4F1FD0C88BFE8
:10085000BCF5E06F3FF6AFAEB5EB030C04BFB6EBF3
:10086000020C5FEA500C50F1000041EB045170BDE6
:100870000EF0004E4EEA113114EB5C04C2BFD4EB13
:100880000C0541EA045170BD41F480114FF0000E97
:10089000013C90E645EA060E8DE60CEA135594EA13
:1008A0000C0F08BF95EA0C0F3FF43BAF94EA0C0F16
:1008B0000AD150EA01347FF434AF95EA0C0F7FF48B
:1008C00025AF104619462CE795EA0C0F06D152EADF
:1008D00003353FF4FDAE1046194622E750EA4106C3
:1008E00018BF52EA43067FF4C5AE50EA41047FF4D4
:1008F0000DAF52EA43057FF4EBAE12E74FF0FF3C39
:1009000006E000BF4FF0010C02E000BF4FF0010C09
:100910004DF804CD4FEA410C7FEA6C5C4FEA430C82
:1009200018BF7FEA6C5C1BD001B050EA410C0CBFD1
:1009300052EA430C91EA030F02BF90EA020F002033
:10094000704710F1000F91EA030F58BF994208BF9A
:1009500090422CBFD8176FEAE37040F00100704757
:100960004FEA410C7FEA6C5C02D150EA013C07D1AE
:100970004FEA430C7FEA6C5CD6D152EA033CD3D0F9
:100980005DF8040B704700BF8446104662468C46F3
:100990001946634600E000BF01B5FFF7B7FF002826
:1009A00048BF10F1000F01BD4DF808EDFFF7F4FF4F
:1009B0000CBF012000205DF808FB00BF4DF808EDDA
:1009C000FFF7EAFF34BF012000205DF808FB00BFFD
:1009D0004DF808EDFFF7E0FF94BF012000205DF81F
:1009E00008FB00BF4DF808EDFFF7CEFF94BF0120D4
:1009F00000205DF808FB00BF4DF808EDFFF7C4FFCD
:100A000034BF012000205DF808FB00BF4FEA410C15
:100A10007FEA6C5C02D150EA013C0AD14FEA430CF8
:100A20007FEA6C5C02D152EA033C02D14FF0000035
:100A300070474FF0010070474FEA410212F5001273
:100A400015D211D56FF47873B3EB625212D94FEA15
:100A5000C12343F0004343EA505311F0004F23FAFF
:100A600002F018BF404270474FF00000704750EA54
:100A7000013005D111F0004008BF6FF00040704711
:100A80004FF00000704700BF4A0011D212F500126B
:100A900011D20DD56FF47873B3EB62520ED44FEAD6
:100AA000C12343F0004343EA505323FA02F0704756
:100AB0004FF00000704750EA013002D14FF0FF3094
:100AC00070474FF00000704780F0004002E000BF28
:100AD00081F0004142001FBF5FEA410392EA030F29
:100AE0007FEA226C7FEA236C6AD04FEA1262D2EB73
:100AF0001363C1BFD218414048404140B8BF5B4278
:100B0000192B88BF704710F0004F40F4000020F010
:100B10007F4018BF404211F0004F41F4000121F026
:100B20007F4118BF494292EA030F3FD0A2F1010270
:100B300041FA03FC10EB0C00C3F1200301FA03F1AE
:100B400000F0004302D5494260EB4000B0F5000FD1
:100B500013D3B0F1807F06D340084FEA310102F190
:100B60000102FE2A51D2B1F1004F40EBC25008BF42
:100B700020F0010040EA03007047490040EB00000C
:100B8000013A28BFB0F5000FEDD2B0FA80FCACF10D
:100B9000080CB2EB0C0200FA0CF0AABF00EBC2503A
:100BA00052421843BCBFD0401843704792F0000F28
:100BB00081F4000106BF80F400000132013BB5E77B
:100BC0004FEA41037FEA226C18BF7FEA236C21D0F1
:100BD00092EA030F04D092F0000F08BF0846704756
:100BE00090EA010F1CBF0020704712F07F4F04D124
:100BF000400028BF40F00040704712F100723CBF37
:100C000000F50000704700F0004343F0FE4040F460
:100C1000000070477FEA226216BF08467FEA23631E
:100C20000146420206BF5FEA412390EA010F40F409
:100C3000800070474FF0000304E000BF10F0004355
:100C400048BF40425FEA000C08BF704743F096433C
:100C500001464FF000001CE050EA010208BF704757
:100C60004FF000030AE000BF50EA010208BF7047DE
:100C700011F0004302D5404261EB41015FEA010CF3
:100C800002BF84460146002043F0B64308BFA3F1EB
:100C90008053A3F50003BCFA8CF2083AA3EBC253CD
:100CA00010DB01FA02FC634400FA02FCC2F12002EC
:100CB000BCF1004F20FA02F243EB020008BF20F023
:100CC0000100704702F1200201FA02FCC2F1200289
:100CD00050EA4C0021FA02F243EB020008BF20EA7E
:100CE000DC7070474FF0FF3C06E000BF4FF0010C96
:100CF00002E000BF4FF0010C4DF804CD4FEA400276
:100D00004FEA41037FEA226C18BF7FEA236C11D0BF
:100D100001B052EA530C18BF90EA010F58BFB2EB72
:100D2000030088BFC81738BF6FEAE17018BF40F0F2
:100D3000010070477FEA226C02D15FEA402C05D1A6
:100D40007FEA236CE4D15FEA412CE1D05DF8040B2B
:100D5000704700BF844608466146FFE70FB5FFF7BE
:100D6000C9FF002848BF10F1000F0FBD4DF808ED76
:100D7000FFF7F4FF0CBF012000205DF808FB00BF67
:100D80004DF808EDFFF7EAFF34BF012000205DF8C1
:100D900008FB00BF4DF808EDFFF7E0FF94BF01200E
:100DA00000205DF808FB00BF4DF808EDFFF7D2FF0B
:100DB00094BF012000205DF808FB00BF4DF808ED4E
:100DC000FFF7C8FF34BF012000205DF808FB00BF1B
:100DD0002DE9B04FB8B006AF00F088FD00F0D8F8AC
:100DE00000F05AFA00F03AFA00F024F900F08CF919
:100DF00000F00AFA04225F495F4800F0B1FE0421C6
:100E00005E4802F087FB08215C4802F083FB4FF04C
:100E1000804340F2EE229A634FF0804340F2EE228C
:100E2000DA630123C7F8C43007F19803D7F8C42068
:100E30005349184603F076FF07F198031846FFF769
:100E400087F903469AB207F198014FF0FF334D48F6
:100E500003F0C8F8474B1968464B5C68454B9B68E4
:100E6000444AD26838460192009323460A464649CE
:100E700003F058FF3B461846FFF76AF903469AB25B
:100E800039464FF0FF333F4803F0ACF8394B1A684E
:100E9000384B5B6813445B081846FFF7CBFE0346EC
:100EA000C7F8C030334B9A68324BDB6813445B0899
:100EB0001846FFF7BFFE0346C7F8BC302D4B1A6833
:100EC0002C4B9B6813445B081846FFF7B3FE0346A0
:100ED000C7F8B830274B5A68264BDB6813445B08C9
:100EE0001846FFF7A7FE0346C7F8B430D7F8C0008E
:100EF000FFF79AFA82468B46D7F8BC00FFF794FAC0
:100F000004460D46D7F8B800FFF78EFA80468946AA
:100F1000D7F8B400FFF788FA02460B4607F1340011
:100F2000CDE90423CDE90289CDE9004552465B466F
:100F3000164903F0F7FE07F134031846FFF708F9E6
:100F400003469AB207F134014FF0FF330D4803F026
:100F500049F8D7F8B430D7F8B820D7F8BC10D7F88C
:100F6000C00000F0AFF9D7F8C4300133C7F8C4307F
:100F70005AE700BFFC020020F001002064020020BC
:100F8000D86F0008AC020020F46F00082070000841
:100F900080B594B000AF07F128032822002118463D
:100FA00003F023FF07F1140300221A605A609A60CD
:100FB000DA601A613B1D00221A605A609A60DA609A
:100FC0000223BB620123BB631023FB6300237B640A
:100FD00007F12803184601F02FFD0346002B01D02E
:100FE00000F02FFA0F237B610023BB610023FB611C
:100FF00000233B6200237B6207F1140300211846A3
:1010000001F09CFF0346002B01D000F01AFA0223E6
:101010007B604FF44043FB603B1D184602F01CF917
:101020000346002B01D000F00CFA00BF5037BD463C
:1010300080BD000080B584B000AF3B1D00221A6067
:101040005A609A602E4B2F4A1A602D4B4FF48072D3
:101050009A602B4B01221A73294B00221A75284BD8
:101060004FF46022DA61264B00225A60244B04229E
:101070001A61234800F09CFC0346002B01D000F0CD
:10108000E0F903237B600123BB600623FB603B1D6B
:1010900019461B4800F05EFE0346002B01D000F00D
:1010A000D0F904237B600223BB603B1D1946144822
:1010B00000F050FE0346002B01D000F0C2F90523DA
:1010C0007B600323BB603B1D19460D4800F042FEC8
:1010D0000346002B01D000F0B4F906237B60042303
:1010E000BB603B1D1946064800F034FE0346002B4A
:1010F00001D000F0A6F900BF1037BD4680BD00BF8B
:10110000F00100200024014080B58EB000AF07F14F
:10111000280300221A605A609A60DA6007F12003FF
:1011200000221A605A603B1D00221A605A609A60C1
:10113000DA601A615A619A61324B4FF080421A604C
:10114000304B0F225A602F4B00229A602D4B40F2F9
:10115000E732DA602B4B00221A612A4B00229A6197
:10116000284802F02FF90346002B01D000F069F95E
:101170004FF48053BB6207F128031946214802F05F
:1011800027FB0346002B01D000F05BF91D4802F05D
:1011900068F90346002B01D000F053F900233B62AD
:1011A00000237B6207F120031946164802F072FE05
:1011B0000346002B01D000F044F970237B6000232C
:1011C000BB600023FB6000237B613B1D04221946AA
:1011D0000C4802F03BFA0346002B01D000F031F935
:1011E0003B1D08221946074802F030FA0346002B3F
:1011F00001D000F026F9034800F0DEF900BF3837CF
:10120000BD4680BD6402002080B500AF114B124A7C
:101210001A60104B4FF416525A600E4B00229A601F
:101220000C4B0022DA600B4B00221A61094B0C2296
:101230005A61084B00229A61064B0022DA61054888
:1012400002F080FE0346002B01D000F0FAF800BF48
:1012500080BD00BFAC0200200038014080B582B0E4
:1012600000AF0C4B5B690B4A43F001035361094B20
:101270005B6903F001037B607B68002200210B2087
:1012800001F039F80B2001F052F800BF0837BD46D5
:1012900080BD00BF0010024080B483B000AF084B97
:1012A0009B69074A43F004039361054B9B6903F074
:1012B00004037B607B6800BF0C37BD4680BC704771
:1012C0000010024090B587B002AFF860B9607A6054
:1012D0003B60B968F868FFF7FBFB03464FF08041BD
:1012E0001846FFF76BFD0346002B0AD0444B1B68E2
:1012F000B3F5487F05DA424B1B680133404A13605F
:1013000016E0F968B868FFF7E3FB03464FF0804149
:101310001846FFF753FD0346002B09D0384B1B68D6
:1013200013F5487F04DD364B1B68013B344A1360DC
:1013300039687868FFF7CCFB03464FF080411846C8
:10134000FFF73CFD0346002B0AD02E4B1B68B3F57C
:10135000487F05DA2B4B1B6801332A4A136016E0DD
:1013600079683868FFF7B4FB03464FF080411846B0
:10137000FFF724FD0346002B09D0224B1B6813F511
:10138000487F04DD1F4B1B68013B1E4A13601C4B4A
:1013900018684FF47A7300934FF4FA735A226FF07F
:1013A000590100F033F803461846FFF72BF80246C0
:1013B0000B464FF0804410461946FFF765FB034685
:1013C000A363104B18684FF47A7300934FF4FA73C9
:1013D0004FF461720C4900F019F803461846FFF704
:1013E00011F802460B464FF0804410461946FFF7AD
:1013F0004BFB0346E36300BF1437BD4690BD00BFFF
:10140000F4020020F80200207CFCFFFF80B485B0CD
:1014100000AFF860B9607A603B60FA68BB68D31AC5
:10142000B9693A688A1A03FB02F27968BB68CB1A79
:1014300092FBF3F23B68134418461437BD4680BC58
:10144000704780B400AF72B600BFFEE780B485B0CD
:1014500000AF154B9B69144A43F001039361124B93
:101460009B6903F00103BB60BB680F4BDB690E4A4D
:1014700043F08053D3610C4BDB6903F080537B60F6
:101480007B680A4B5B68FB60FB6823F0E063FB60F2
:10149000FB6843F08063FB60044AFB68536000BF55
:1014A0001437BD4680BC7047001002400000014068
:1014B00080B588B000AF786007F1100300221A6091
:1014C0005A609A60DA607B681B68284A934249D167
:1014D000274B9B69264A43F400739361244B9B6915
:1014E00003F40073FB60FB68214B9B69204A43F0C7
:1014F000040393611E4B9B6903F00403BB60BB684C
:1015000078233B6103237B6107F1100319461948D7
:1015100001F016F9184B194A1A60174B00225A604D
:10152000154B00229A60144B8022DA60124B4FF464
:1015300000721A61104B4FF400625A610E4B202268
:101540009A610D4B0022DA610B4800F00BFF034655
:10155000002B01D0FFF775FF7B68074A1A62064A25
:101560007B68536200BF2037BD4680BD0024014028
:101570000010024000080140200200200800024044
:1015800080B485B000AF78607B681B68B3F1804F92
:101590000BD1084BDB69074A43F00103D361054BCC
:1015A000DB6903F00103FB60FB6800BF1437BD4635
:1015B00080BC70470010024080B588B000AF7860F2
:1015C00007F1100300221A605A609A60DA607B68A3
:1015D0001B68B3F1804F17D10D4B9B690C4A43F048
:1015E000040393610A4B9B6903F00403FB60FB68EF
:1015F00006233B6102237B610223FB6107F1100399
:101600001946044801F09CF800BF2037BD4680BD54
:10161000001002400008014080B588B000AF78603B
:1016200007F1100300221A605A609A60DA607B6842
:101630001B681C4A934231D11B4B9B691A4A43F4E5
:1016400080439361184B9B6903F48043FB60FB6804
:10165000154B9B69144A43F004039361124B9B6939
:1016600003F00403BB60BB684FF400733B610223CB
:101670007B610323FB6107F1100319460B4801F05E
:101680005FF84FF480633B6100237B610023BB6103
:1016900007F110031946054801F052F800BF203742
:1016A000BD4680BD003801400010024000080140E6
:1016B00080B400AFFEE780B400AFFEE780B400AFB7
:1016C000FEE780B400AFFEE780B400AFFEE780B471
:1016D00000AF00BFBD4680BC704780B400AF00BF04
:1016E000BD4680BC704780B400AF00BFBD4680BC23
:1016F000704780B500AF00F03FF900BF80BD00002B
:1017000080B500AF024800F0E7FE00BF80BD00BF1B
:101710002002002080B400AF01231846BD4680BCE3
:10172000704780B582B000AF7860396003F0B0FBDD
:10173000034616221A604FF0FF3318460837BD469D
:1017400080BD80B582B000AF78604FF0FF3178681F
:10175000FFF7E7FFFEE780B586B000AFF860B9603D
:101760007A6000237B610AE0AFF300800146BB682A
:101770005A1CBA60CAB21A707B6901337B617A69FC
:101780007B689A42F0DB7B6818461837BD4680BDFF
:1017900080B586B000AFF860B9607A6000237B61E5
:1017A00009E0BB685A1CBA601B781846AFF300808A
:1017B0007B6901337B617A697B689A42F1DB7B68E4
:1017C00018461837BD4680BD80B483B000AF78603E
:1017D0004FF0FF3318460C37BD4680BC704780B4CD
:1017E00083B000AF786039603B684FF400525A60B4
:1017F000002318460C37BD4680BC704780B483B0C8
:1018000000AF7860012318460C37BD4680BC704796
:1018100080B485B000AFF860B9607A6000231846E4
:101820001437BD4680BC704780B586B000AF786085
:10183000144A154BD31A7B617B693B61134B1B68C0
:10184000002B02D1114B124A1A60104B1A687B68A8
:1018500013443A699A4207D203F01AFB03460C225A
:101860001A604FF0FF3309E0084B1B68FB60074B21
:101870001A687B681344054A1360FB6818461837DA
:10188000BD4680BD00280020000400000C0300209D
:101890006004002080B400AF00BFBD4680BC70472C
:1018A000FFF7F8FF0B480C490C4A002302E0D4581C
:1018B000C4500433C4188C42F9D3094A094C00239C
:1018C00001E013600432A242FBD303F0E7FAFFF712
:1018D0007FFA704700000020D40100200C7400083B
:1018E000D401002060040020FEE7000080B500AFB6
:1018F000084B1B68074A43F010031360032000F0F5
:10190000EFFC0F2000F008F8FFF7A0FD00231846B9
:1019100080BD00BF0020024080B582B000AF78607B
:10192000124B1A68124B1B7819464FF47A73B3FBAB
:10193000F1F3B2FBF3F3184600F007FD0346002B6A
:1019400001D001230EE07B680F2B0AD800227968B2
:101950004FF0FF3000F0CFFC064A7B681360002395
:1019600000E0012318460837BD4680BD0000002076
:10197000080000200400002080B400AF054B1B7855
:101980001A46054B1B681344034A136000BFBD464B
:1019900080BC7047080000201003002080B400AF16
:1019A000024B1B681846BD4680BC704710030020E0
:1019B00080B586B000AF78600023FB7500233B61E3
:1019C0000023BB600023FB607B68002B01D1012357
:1019D000BEE07B689B68002B7B689B6A002B09D16B
:1019E0007B680022DA627B68002283F82420786812
:1019F000FFF75EFD786800F0FFFA0346FB757B6831
:101A00009B6A03F01003002B40F09980FB7D002BB4
:101A100040F095807B689B6A23F4885323F002038F
:101A200043F002027B689A627B685A687B68DB69D4
:101A30001A437B681B7B5B001343BA681343BB608C
:101A40007B689B68B3F5807F03D07B689B68012B24
:101A500002D14FF4807300E000233A6913433B61E5
:101A60007B681B7D012B19D17B681B7B002B09D167
:101A70007B689B69013B5A033B69134343F4006352
:101A80003B610BE07B689B6A43F020027B689A62B3
:101A90007B68DB6A43F001027B68DA627B681B6863
:101AA0005B6823F469417B681B683A690A435A60A2
:101AB0007B681B689A68284B13407A681268B9687B
:101AC0000B4393607B689B68B3F5807F03D07B6892
:101AD0009B68012B04D17B681B69013B1B05FB60E4
:101AE0007B681B68DB6A23F470017B681B68FA68FB
:101AF0000A43DA627B681B689A68184B1340BA681D
:101B00009A420BD17B680022DA627B689B6A23F0E1
:101B1000030343F001027B689A6218E07B689B6ACA
:101B200023F0120343F010027B689A627B68DB6A41
:101B300043F001027B68DA620123FB7507E07B68F2
:101B40009B6A43F010027B689A620123FB75FB7D60
:101B500018461837BD4680BDFDF7E1FFFE0E1FFF9A
:101B600080B586B000AFF860B9607A600023FB757D
:101B7000FB681B68644A934204D0FB681B68634A95
:101B8000934206D1604B5B6803F47023002B40F056
:101B9000B380FB6893F82430012B01D10223AEE01F
:101BA000FB68012283F82420F86800F0CBF9034693
:101BB000FB75FB7D002B40F09A80FB689B6A23F449
:101BC000706323F0010343F48072FB689A62FB6840
:101BD0001B684E4A934205D14B4B5B6803F470235C
:101BE000002B15D1FB689B6A23F48012FB689A6274
:101BF000FB681B685B6803F48063002B26D0FB68DE
:101C00009B6A23F4405343F48052FB689A621DE0C0
:101C1000FB689B6A43F48012FB689A62FB681B684E
:101C2000394A934204D0FB681B68384A93420DD16D
:101C3000354B5B6803F48063002B07D0FB689B6A1D
:101C400023F4405343F48052FB689A62FB689B6A1A
:101C500003F48053002B06D0FB68DB6A23F00602F6
:101C6000FB68DA6202E0FB680022DA62FB680022AD
:101C700083F82420FB681B6A254A9A62FB681B6A6A
:101C8000244ADA62FB681B6A234A1A63FB681B68F2
:101C90006FF002021A60FB681B689A68FB681B6899
:101CA00042F480729A60FB68186AFB681B684C33C8
:101CB0001946BA687B6800F0AFFBFB681B689B683D
:101CC00003F46023B3F5602F08D1FB681B689A68A2
:101CD000FB681B6842F4A0029A600FE0FB681B6877
:101CE0009A68FB681B6842F480129A6006E0FB6801
:101CF000002283F8242001E00123FB75FB7D1846B8
:101D00001837BD4680BD00BF0024014000280140B7
:101D10007B200008F72000081321000880B483B05E
:101D200000AF786000BF0C37BD4680BC704780B400
:101D300083B000AF786000BF0C37BD4680BC7047F1
:101D400080B483B000AF786000BF0C37BD4680BC64
:101D50007047000080B485B000AF78603960002320
:101D6000FB730023BB607B6893F82430012B01D107
:101D70000223DCE07B68012283F824203B685B6857
:101D8000062B1CD87B681B68596B3B685A68134646
:101D90009B001344053B1F2202FA03F3DB43194067
:101DA0003B6818683B685A6813469B001344053B20
:101DB00000FA03F27B681B680A435A633CE03B6805
:101DC0005B680C2B1CD87B681B68196B3B685A68D6
:101DD00013469B001344233B1F2202FA03F3DB4309
:101DE00019403B6818683B685A6813469B001344C7
:101DF000233B00FA03F27B681B680A431A631BE06B
:101E00007B681B68D96A3B685A6813469B00134479
:101E1000413B1F2202FA03F3DB4319403B68186879
:101E20003B685A6813469B001344413B00FA03F297
:101E30007B681B680A43DA623B681B68092B1CD964
:101E40007B681B68D9683B681A6813465B001344BB
:101E50001E3B072202FA03F3DB4319403B689868F4
:101E60003B681A6813465B0013441E3B00FA03F2FA
:101E70007B681B680A43DA6019E07B681B68196994
:101E80003B681A6813465B001344072202FA03F307
:101E9000DB4319403B6898683B681A6813465B004F
:101EA000134400FA03F27B681B680A431A613B681B
:101EB0001B68102B03D03B681B68112B32D17B6849
:101EC0001B681D4A934225D17B681B689B6803F4FD
:101ED0000003002B26D17B681B689A687B681B680F
:101EE00042F400029A603B681B68102B1AD1134B16
:101EF0001B68134AA2FB03239A0C13469B0013444E
:101F00005B00BB6002E0BB68013BBB60BB68002BB1
:101F1000F9D107E07B689B6A43F020027B689A62F4
:101F20000123FB737B68002283F82420FB7B184687
:101F30001437BD4680BC70470024014000000020DB
:101F400083DE1B4380B584B000AF78600023FB6064
:101F50000023BB607B681B689B6803F00103012BB7
:101F600040D07B681B689A687B681B6842F001025E
:101F70009A601F4B1B681F4AA2FB03239B0CBB608C
:101F800002E0BB68013BBB60BB68002BF9D1FFF7E7
:101F900005FDF8601FE0FFF701FD0246FB68D31A5C
:101FA000022B18D97B681B689B6803F00103012B87
:101FB00011D07B689B6A43F010027B689A627B6851
:101FC000DB6A43F001027B68DA627B68002283F8F7
:101FD0002420012307E07B681B689B6803F0010352
:101FE000012BD8D1002318461037BD4680BD00BF55
:101FF0000000002083DE1B4380B584B000AF786012
:102000000023FB607B681B689B6803F00103012BC6
:102010002ED17B681B689A687B681B6822F00102DE
:102020009A60FFF7BBFCF8601BE0FFF7B7FC0246C5
:10203000FB68D31A022B14D97B681B689B6803F0DA
:102040000103012B0DD17B689B6A43F010027B6872
:102050009A627B68DB6A43F001027B68DA620123E3
:1020600007E07B681B689B6803F00103012BDCD051
:10207000002318461037BD4680BD80B584B000AF40
:1020800078607B685B6AFB60FB689B6A03F05003C7
:10209000002B27D1FB689B6A43F40072FB689A62AD
:1020A000FB681B689B6803F46023B3F5602F15D1B0
:1020B000FB681B7B002B11D1FB689B6A23F48072A9
:1020C000FB689A62FB689B6A03F48053002B05D17E
:1020D000FB689B6A43F00102FB689A62F868FFF7AD
:1020E0001DFE04E0FB681B6A1B6B7868984700BF05
:1020F0001037BD4680BD80B584B000AF78607B6886
:102100005B6AFB60F868FFF712FE00BF1037BD4640
:1021100080BD80B584B000AF78607B685B6AFB608F
:10212000FB689B6A43F04002FB689A62FB68DB6ACB
:1021300043F00402FB68DA62F868FFF701FE00BFB3
:102140001037BD4680BD000080B485B000AF786018
:102150007B6803F00703FB600C4BDB68BB60BA686D
:102160004FF6FF031340BB60FB681A02BB681343C2
:1021700043F0BF6343F40033BB60044ABB68D360E1
:1021800000BF1437BD4680BC704700BF00ED00E0C3
:1021900080B400AF044BDB681B0A03F0070318464A
:1021A000BD4680BC704700BF00ED00E080B483B046
:1021B00000AF0346FB7197F90730002B0BDBFB796F
:1021C00003F01F02064997F907305B09012000FA66
:1021D00002F241F8232000BF0C37BD4680BC704797
:1021E00000E100E080B483B000AF03463960FB71CA
:1021F00097F90730002B0ADB3B68DAB20C4997F9F4
:1022000007301201D2B20B4483F800230AE03B6886
:10221000DAB20849FB7903F00F03043B1201D2B292
:102220000B441A7600BF0C37BD4680BC704700BF18
:1022300000E100E000ED00E080B489B000AFF8609C
:10224000B9607A60FB6803F00703FB61FB69C3F1C7
:102250000703042B28BF0423BB61FB690433062B4F
:1022600002D9FB69033B00E000237B614FF0FF32A2
:10227000BB6902FA03F3DA43BB681A407B699A40F0
:102280004FF0FF317B6901FA03F3D9437B680B40C0
:10229000134318462437BD4680BC704780B582B0D2
:1022A00000AF78607B68013BB3F1807F01D30123ED
:1022B0000FE00A4A7B68013B53600F214FF0FF306B
:1022C000FFF790FF054B00229A60044B07221A602B
:1022D000002318460837BD4680BD00BF10E000E06F
:1022E00080B582B000AF78607868FFF72DFF00BF3F
:1022F0000837BD4680BD80B586B000AF0346B960E3
:102300007A60FB7300237B61FFF742FF78617A6894
:10231000B9687869FFF790FF024697F90F301146C8
:102320001846FFF75FFF00BF1837BD4680BD80B578
:1023300082B000AF0346FB7197F907301846FFF7EC
:1023400035FF00BF0837BD4680BD80B582B000AF05
:1023500078607868FFF7A2FF034618460837BD4645
:1023600080BD000080B485B000AF78600023FB60C2
:102370007B68002B01D1012343E07B681B681A4670
:10238000224B1344224AA2FB03231B099A007B68B9
:102390001A647B681F4ADA637B68022283F8212073
:1023A0007B681B681B68FB60FB6823F47F5323F08A
:1023B0003003FB607B685A687B689B681A437B68C4
:1023C000DB681A437B681B691A437B685B691A43A5
:1023D0007B689B691A437B68DB691343FA68134384
:1023E000FB607B681B68FA681A607B6800229A634E
:1023F0007B68012283F821207B68002283F820205B
:10240000002318461437BD4680BC7047F8FFFDBF57
:10241000CDCCCCCC0000024080B586B000AFF860D7
:10242000B9607A603B600023FB75FB6893F820304D
:10243000012B01D102234BE0FB68012283F820200D
:10244000FB6893F82130DBB2012B3AD1FB68022202
:1024500083F82120FB6800229A63FB681B681A68D6
:10246000FB681B6822F001021A603B687A68B96851
:10247000F86800F037F9FB68DB6A002B08D0FB68CE
:102480001B681A68FB681B6842F00E021A600FE0B6
:10249000FB681B681A68FB681B6822F004021A605C
:1024A000FB681B681A68FB681B6842F00A021A6026
:1024B000FB681B681A68FB681B6842F001021A601F
:1024C00005E0FB68002283F820200223FB75FB7DDA
:1024D00018461837BD4680BD80B584B000AF78601F
:1024E0007B68DB6B1B68FB607B681B681B68BB60E1
:1024F0007B681B6C04229A40FB681340002B4FD072
:10250000BB6803F00403002B4AD07B681B681B6880
:1025100003F02003002B07D17B681B681A687B68D7
:102520001B6822F004021A607B681B68664A9342AB
:1025300029D07B681B68654A934222D07B681B6860
:10254000634A93421AD07B681B68624A934212D056
:102550007B681B68604A93420AD07B681B685F4AAD
:10256000934202D14FF480030EE04FF080630BE002
:102570004FF4802308E04FF4804305E04FF480637C
:1025800002E0402300E00423554A53607B68DB6A85
:10259000002B00F094807B68DB6A786898478EE0B7
:1025A0007B681B6C02229A40FB681340002B56D0BC
:1025B000BB6803F00203002B51D07B681B681B68CB
:1025C00003F02003002B0BD17B681B681A687B6823
:1025D0001B6822F00A021A607B68012283F821201E
:1025E0007B681B68384A934229D07B681B68374A4E
:1025F000934222D07B681B68354A93421AD07B688D
:102600001B68344A934212D07B681B68324A93425B
:102610000AD07B681B68314A934202D14FF4001301
:102620000EE04FF000730BE04FF4003308E04FF47E
:10263000005305E04FF4007302E0202300E0022382
:10264000274A53607B68002283F820207B689B6ABE
:10265000002B34D07B689B6A786898472FE07B68B2
:102660001B6C08229A40FB681340002B28D0BB68E3
:1026700003F00803002B23D07B681B681A687B6873
:102680001B6822F00E021A607B681A6C7B68DB6B99
:10269000012101FA02F25A607B6801229A637B6889
:1026A000012283F821207B68002283F820207B68A8
:1026B0001B6B002B04D07B681B6B7868984700BFAE
:1026C00000BF1037BD4680BD080002401C0002401C
:1026D0003000024044000240580002406C000240BA
:1026E0000000024080B485B000AFF860B9607A6045
:1026F0003B60FB681A6CFB68DB6B012101FA02F29C
:102700005A60FB681B683A685A60FB685B68102B6C
:1027100008D1FB681B687A689A60FB681B68BA6816
:10272000DA6007E0FB681B68BA689A60FB681B68A0
:102730007A68DA6000BF1437BD4680BC704700007D
:1027400080B48BB000AF7860396000237B620023D7
:102750003B6261E101227B6A02FA03F3FB613B68A1
:102760001B68FA691340BB61BA69FB699A4240F081
:1027700050813B685B68974A93425ED0954A93428A
:1027800075D8954A934258D0934A93426FD8934A4A
:10279000934252D0914A934269D8914A93424CD085
:1027A0008F4A934263D88F4A934246D08D4A9342D0
:1027B0005DD8122B2AD8122B59D801A252F823F037
:1027C0003B28000815280008272800086928000869
:1027D0006F2800086F2800086F2800086F2800087D
:1027E0006F2800086F2800086F2800086F2800086D
:1027F0006F2800086F2800086F2800086F2800085D
:102800006F2800081D28000831280008764A9342E6
:1028100013D02CE03B68DB683B6229E03B68DB6857
:1028200004333B6224E03B68DB6808333B621FE013
:102830003B68DB680C333B621AE03B689B68002B0B
:1028400002D104233B6213E03B689B68012B05D156
:1028500008233B627B68FA691A6109E008233B623E
:102860007B68FA695A6103E000233B6200E000BF25
:10287000BB69FF2B01D87B6801E07B6804337B6177
:10288000BB69FF2B02D87B6A9B0002E07B6A083B96
:102890009B003B617B691A680F213B6901FA03F3D6
:1028A000DB431A40396A3B6901FA03F31A437B6937
:1028B0001A603B685B6803F08053002B00F0A9802E
:1028C0004A4B9B69494A43F001039361474B9B691B
:1028D00003F00103BB60BB68454A7B6A9B08023377
:1028E00052F82330FB607B6A03F003039B000F2246
:1028F00002FA03F3DB43FA681340FB607B683D4A4E
:1029000093420DD07B683C4A934207D07B683B4A98
:10291000934201D1022304E0032302E0012300E0FB
:1029200000237A6A02F0030292009340FA6813438C
:10293000FB602F497B6A9B080233FA6841F8232029
:102940003B685B6803F48013002B06D02C4B9A681D
:102950002B49BB6913438B6006E0294B9A68BB691E
:10296000DB43274913408B603B685B6803F400132B
:10297000002B06D0224BDA682149BB691343CB6098
:1029800006E01F4BDA68BB69DB431D491340CB608F
:102990003B685B6803F40033002B06D0184B5A6881
:1029A0001749BB6913434B6006E0154B5A68BB6976
:1029B000DB43134913404B603B685B6803F480338F
:1029C000002B1FD00E4B1A680D49BB6913430B60D7
:1029D0001FE000BF00003210000031100000221084
:1029E0000000211000001210000011100010024021
:1029F0000000014000080140000C014000100140AF
:102A0000000401400B4B1A68BB69DB4309491340C2
:102A10000B607B6A01337B623B681A687B6A22FA2F
:102A200003F3002B7FF496AE00BF00BF2C37BD46EA
:102A300080BC70470004014080B586B000AF78606C
:102A40007B68002B01D1012372E27B681B6803F0D5
:102A50000103002B00F08780924B5B6803F00C03AE
:102A6000042B0CD08F4B5B6803F00C03082B12D1A6
:102A70008C4B5B6803F48033B3F5803F0BD1894BFB
:102A80001B6803F40033002B6CD07B685B68002B61
:102A900068D101234CE27B685B68B3F5803F06D1C7
:102AA000804B1B687F4A43F4803313602EE07B68C1
:102AB0005B68002B0CD17B4B1B687A4A23F4803374
:102AC0001360784B1B68774A23F4802313601DE062
:102AD0007B685B68B3F5A02F0CD1724B1B68714A01
:102AE00043F4802313606F4B1B686E4A43F48033BA
:102AF00013600BE06B4B1B686A4A23F4803313604E
:102B0000684B1B68674A23F4802313607B685B680B
:102B1000002B13D0FEF742FF386108E0FEF73EFFBE
:102B200002463B69D31A642B01D9032300E25D4BB3
:102B30001B6803F40033002BF0D014E0FEF72EFFE7
:102B4000386108E0FEF72AFF02463B69D31A642B7E
:102B500001D90323ECE1534B1B6803F40033002B32
:102B6000F0D100E000BF7B681B6803F00203002B7C
:102B700063D04C4B5B6803F00C03002B0BD0494B2C
:102B80005B6803F00C03082B1CD1464B5B6803F415
:102B90008033002B16D1434B1B6803F00203002B3C
:102BA00005D07B681B69012B01D00123C0E13D4B9F
:102BB0001B6823F0F8027B685B69DB00394913432B
:102BC0000B603AE07B681B69002B20D0364B01225A
:102BD0001A60FEF7E3FE386108E0FEF7DFFE02460A
:102BE0003B69D31A022B01D90323A1E12D4B1B68AA
:102BF00003F00203002BF0D02A4B1B6823F0F802ED
:102C00007B685B69DB00274913430B6015E0264BAB
:102C100000221A60FEF7C2FE386108E0FEF7BEFE31
:102C200002463B69D31A022B01D9032380E11D4BD5
:102C30001B6803F00203002BF0D17B681B6803F0D4
:102C40000803002B3AD07B689B69002B19D0174BE7
:102C500001221A60FEF7A2FE386108E0FEF79EFE30
:102C600002463B69D31A022B01D9032360E10D4BC5
:102C70005B6A03F00203002BF0D0012000F0CEFAD3
:102C80001CE00A4B00221A60FEF788FE38610FE054
:102C9000FEF784FE02463B69D31A022B08D90323B0
:102CA00046E100BF00100240000042428004424260
:102CB000924B5B6A03F00203002BE9D17B681B682F
:102CC00003F00403002B00F0A6800023FB758B4B60
:102CD000DB6903F08053002B0DD1884BDB69874AF9
:102CE00043F08053D361854BDB6903F08053BB60B5
:102CF000BB680123FB75824B1B6803F48073002BB8
:102D000018D17F4B1B687E4A43F480731360FEF733
:102D100045FE386108E0FEF741FE02463B69D31AE2
:102D2000642B01D9032303E1754B1B6803F4807303
:102D3000002BF0D07B68DB68012B06D16F4B1B6A40
:102D40006E4A43F0010313622DE07B68DB68002BC1
:102D50000CD16A4B1B6A694A23F001031362674B6B
:102D60001B6A664A23F0040313621CE07B68DB687D
:102D7000052B0CD1614B1B6A604A43F004031362BC
:102D80005E4B1B6A5D4A43F0010313620BE05B4B31
:102D90001B6A5A4A23F001031362584B1B6A574AB5
:102DA00023F0040313627B68DB68002B15D0FEF769
:102DB000F5FD38610AE0FEF7F1FD02463B69D31AE2
:102DC00041F28832934201D90323B1E04B4B1B6A95
:102DD00003F00203002BEED014E0FEF7DFFD3861B4
:102DE0000AE0FEF7DBFD02463B69D31A41F2883266
:102DF000934201D903239BE0404B1B6A03F002037B
:102E0000002BEED1FB7D012B05D13C4BDB693B4A0E
:102E100023F08053D3617B68DB69002B00F087804F
:102E2000364B5B6803F00C03082B61D07B68DB69D1
:102E3000022B46D1334B00221A60FEF7AFFD3861FA
:102E400008E0FEF7ABFD02463B69D31A022B01D91D
:102E500003236DE0294B1B6803F00073002BF0D1B6
:102E60007B681B6AB3F5803F08D1244B5B6823F471
:102E700000327B689B68214913434B601F4B5B68A2
:102E800023F474127B68196A7B685B6A0B431B49E5
:102E900013434B601B4B01221A60FEF77FFD386124
:102EA00008E0FEF77BFD02463B69D31A022B01D9ED
:102EB00003233DE0114B1B6803F00073002BF0D09F
:102EC00035E0104B00221A60FEF768FD386108E01B
:102ED000FEF764FD02463B69D31A022B01D9032396
:102EE00026E0064B1B6803F00073002BF0D11EE0B8
:102EF0007B68DB69012B07D1012319E00010024038
:102F000000700040600042420B4B5B68FB60FB6856
:102F100003F480327B681B6A9A4206D1FB6803F493
:102F200070127B685B6A9A4201D0012300E00023A3
:102F300018461837BD4680BD0010024080B584B0E9
:102F400000AF786039607B68002B01D10123D0E0AD
:102F50006A4B1B6803F007033A689A4210D9674B23
:102F60001B6823F0070265493B6813430B60634B02
:102F70001B6803F007033A689A4201D00123B8E0C6
:102F80007B681B6803F00203002B20D07B681B6862
:102F900003F00403002B05D0594B5B68584A43F4F7
:102FA000E06353607B681B6803F00803002B05D0C7
:102FB000534B5B68524A43F460535360504B5B6819
:102FC00023F0F0027B689B684D4913434B607B689C
:102FD0001B6803F00103002B40D07B685B68012B6A
:102FE00007D1474B1B6803F40033002B15D1012395
:102FF0007FE07B685B68022B07D1414B1B6803F0C5
:103000000073002B09D1012373E03D4B1B6803F0D3
:103010000203002B01D101236BE0394B5B6823F0E5
:1030200003027B685B68364913434B60FEF7B6FCCE
:10303000F8600AE0FEF7B2FC0246FB68D31A41F2E0
:103040008832934201D9032353E02D4B5B6803F090
:103050000C027B685B689B009A42EBD1274B1B6894
:1030600003F007033A689A4210D2244B1B6823F0FE
:10307000070222493B6813430B60204B1B6803F097
:1030800007033A689A4201D0012332E07B681B684B
:1030900003F00403002B08D0194B5B6823F4E062B3
:1030A0007B68DB68164913434B607B681B6803F041
:1030B0000803002B09D0124B5B6823F460527B6835
:1030C0001B69DB000E4913434B6000F021F80246F8
:1030D0000B4B5B681B0903F00F030A49CB5C22FA18
:1030E00003F3094A1360094B1B681846FEF714FCEA
:1030F000002318461037BD4680BD00BF00200240A7
:103100000010024068700008000000200400002049
:1031100080B487B000AF0023FB600023BB600023B6
:103120007B6100237B6000233B611E4B5B68FB607F
:10313000FB6803F00C03042B02D0082B03D027E01C
:10314000194B3B6127E0FB689B0C03F00F03174A08
:10315000D35C7B60FB6803F48033002B10D0114BF1
:103160005B685B0C03F00103114AD35CBB607B68B6
:103170000D4A03FB02F2BB68B2FBF3F37B6104E090
:103180007B680C4A02FB03F37B617B693B6102E0D5
:10319000054B3B6100BF3B6918461C37BD4680BCF0
:1031A000704700BF0010024000127A0080700008D3
:1031B0009070000800093D0080B400AF024B1B680E
:1031C0001846BD4680BC70470000002080B500AFA7
:1031D000FFF7F2FF0246054B5B681B0A03F007038B
:1031E0000349CB5C22FA03F3184680BD001002406D
:1031F0007870000880B500AFFFF7DEFF0246054B90
:103200005B68DB0A03F007030349CB5C22FA03F394
:10321000184680BD001002407870000880B485B068
:1032200000AF78600A4B1B680A4AA2FB03235B0AC3
:103230007A6802FB03F3FB6000BFFB685A1EFA606A
:10324000002BF9D100BF00BF1437BD4680BC7047CA
:1032500000000020D34D621080B586B000AF7860CA
:1032600000233B610023FB607B681B6803F00103C4
:10327000002B7DD00023FB754F4BDB6903F080539F
:10328000002B0DD14C4BDB694B4A43F08053D3618B
:10329000494BDB6903F08053BB60BB680123FB75BE
:1032A000464B1B6803F48073002B18D1434B1B68FB
:1032B000424A43F480731360FEF770FB386108E004
:1032C000FEF76CFB02463B69D31A642B01D903233A
:1032D0006DE03A4B1B6803F48073002BF0D0364B43
:1032E0001B6A03F44073FB60FB68002B2ED07B68E5
:1032F0005B6803F44073FA689A4227D02E4B1B6A2E
:1033000023F44073FB602E4B01221A602C4B0022E9
:103310001A60294AFB681362FB6803F00103002B63
:1033200014D0FEF73BFB38610AE0FEF737FB02469C
:103330003B69D31A41F28832934201D9032336E024
:103340001D4B1B6A03F00203002BEED01A4B1B6AC5
:1033500023F440727B685B68174913430B62FB7D63
:10336000012B05D1144BDB69134A23F08053D36141
:103370007B681B6803F00203002B08D00E4B5B68D0
:1033800023F440427B689B680B4913434B607B6886
:103390001B6803F01003002B08D0074B5B6823F475
:1033A00080027B68DB68044913434B6000231846A6
:1033B0001837BD4680BD00BF0010024000700040BD
:1033C0004004424280B582B000AF78607B68002B39
:1033D00001D1012341E07B6893F83D30DBB2002B43
:1033E00006D17B68002283F83C207868FEF7C8F895
:1033F0007B68022283F83D207B681A687B6804336F
:103400001946104600F0ACFA7B68012283F846208A
:103410007B68012283F83E207B68012283F83F20ED
:103420007B68012283F840207B68012283F84120D9
:103430007B68012283F842207B68012283F84320C5
:103440007B68012283F844207B68012283F84520B1
:103450007B68012283F83D20002318460837BD46CB
:1034600080BD80B582B000AF78607B68002B01D151
:10347000012341E07B6893F83D30DBB2002B06D19D
:103480007B68002283F83C20786800F039F87B687C
:10349000022283F83D207B681A687B680433194652
:1034A000104600F05DFA7B68012283F846207B68B5
:1034B000012283F83E207B68012283F83F207B684D
:1034C000012283F840207B68012283F841207B6839
:1034D000012283F842207B68012283F843207B6825
:1034E000012283F844207B68012283F845207B6811
:1034F000012283F83D20002318460837BD4680BDD1
:1035000080B483B000AF786000BF0C37BD4680BC8C
:103510007047000080B584B000AF786039603B68C8
:10352000002B09D17B6893F83E30DBB2012B14BF2E
:1035300001230023DBB222E03B68042B09D17B6826
:1035400093F83F30DBB2012B14BF01230023DBB221
:1035500015E03B68082B09D17B6893F84030DBB25B
:10356000012B14BF01230023DBB208E07B6893F832
:103570004130DBB2012B14BF01230023DBB2002B4F
:1035800001D0012359E03B68002B04D17B68022263
:1035900083F83E2013E03B68042B04D17B680222B1
:1035A00083F83F200BE03B68082B04D17B680222A4
:1035B00083F8402003E07B68022283F841207B6887
:1035C0001B6801223968184600F040FC7B681B68C4
:1035D0001C4A934207D17B681B685A6C7B681B6846
:1035E00042F400425A647B681B68164A934209D031
:1035F0007B681B68B3F1804F04D07B681B68124A5C
:10360000934211D17B681B689B6803F00703FB6042
:10361000FB68062B10D07B681B681A687B681B68E8
:1036200042F001021A6007E07B681B681A687B6839
:103630001B6842F001021A60002318461037BD468D
:1036400080BD00BF002C01400004004080B586B062
:1036500000AFF860B9607A600023FB75FB6893F8EF
:103660003C30012B01D10223AEE0FB68012283F83C
:103670003C207B680C2B00F29F8001A252F823F0C3
:10368000B5360008B9370008B9370008B93700085F
:10369000F5360008B9370008B9370008B93700080F
:1036A00037370008B9370008B9370008B9370008BC
:1036B00077370008FB681B68B968184600F0A8F95E
:1036C000FB681B689A69FB681B6842F008029A61F4
:1036D000FB681B689A69FB681B6822F004029A6108
:1036E000FB681B689969BB681A69FB681B680A4319
:1036F0009A6164E0FB681B68B968184600F0EEF94F
:10370000FB681B689A69FB681B6842F400629A6157
:10371000FB681B689A69FB681B6822F480629A61E7
:10372000FB681B689969BB681B691A02FB681B6808
:103730000A439A6143E0FB681B68B968184600F0C9
:1037400037FAFB681B68DA69FB681B6842F00802FD
:10375000DA61FB681B68DA69FB681B6822F0040207
:10376000DA61FB681B68D969BB681A69FB681B686A
:103770000A43DA6123E0FB681B68B968184600F069
:1037800081FAFB681B68DA69FB681B6842F4006217
:10379000DA61FB681B68DA69FB681B6822F48062E7
:1037A000DA61FB681B68D969BB681B691A02FB6890
:1037B0001B680A43DA6102E00123FB7500BFFB6866
:1037C000002283F83C20FB7D18461837BD4680BD9B
:1037D00080B584B000AF786039600023FB737B68EC
:1037E00093F83C30012B01D10223B4E07B68012225
:1037F00083F83C207B68022283F83D207B681B68AD
:103800009B68BB60BB6823F07703BB60BB6823F495
:103810007F43BB607B681B68BA689A603B681B6823
:10382000B3F5005F3ED0B3F5005F00F28780B3F5DB
:10383000805F00F08680B3F5805F7FD8702B1AD050
:10384000702B7BD8602B50D0602B77D8502B3CD07E
:10385000502B73D8402B58D0402B6FD8302B64D0CE
:10386000302B6BD8202B60D0202B67D8002B5CD05E
:10387000102B5AD062E07B6818683B6899683B68F7
:103880005A683B68DB6800F0C2FA7B681B689B687B
:10389000BB60BB6843F07703BB607B681B68BA689A
:1038A0009A604FE07B6818683B6899683B685A6883
:1038B0003B68DB6800F0ABFA7B681B689A687B6842
:1038C0001B6842F480429A603CE07B6818683B6861
:1038D00059683B68DB681A4600F022FA7B681B686F
:1038E0005021184600F079FA2CE07B6818683B6894
:1038F00059683B68DB681A4600F040FA7B681B6831
:103900006021184600F069FA1CE07B6818683B6883
:1039100059683B68DB681A4600F002FA7B681B684E
:103920004021184600F059FA0CE07B681A683B68A1
:103930001B681946104600F050FA03E00123FB73A0
:1039400000E000BF7B68012283F83D207B680022F5
:1039500083F83C20FB7B18461037BD4680BD000035
:1039600080B485B000AF786039607B681B68FB600D
:103970007B68254A934207D07B68B3F1804F03D020
:103980007B68224A934208D1FB6823F07003FB60F6
:103990003B685B68FA681343FB607B681A4A934292
:1039A00007D07B68B3F1804F03D07B68174A9342FE
:1039B00008D1FB6823F44073FB603B68DB68FA685E
:1039C0001343FB60FB6823F080023B685B69134391
:1039D000FB607B68FA681A603B689A687B68DA6209
:1039E0003B681A687B689A627B68074A934203D1F6
:1039F0003B681A697B681A637B6801225A6100BFC1
:103A00001437BD4680BC7047002C014000040040C4
:103A100080B487B000AF786039607B681B6A7B61D7
:103A20007B681B6A23F001027B681A627B685B6813
:103A30003B617B689B69FB60FB6823F07003FB6064
:103A4000FB6823F00303FB603B681B68FA681343C1
:103A5000FB607B6923F002037B613B689B687A69AA
:103A600013437B617B681C4A93420CD17B6923F032
:103A700008037B613B68DB687A6913437B617B6980
:103A800023F004037B617B68134A934211D13B69A5
:103A900023F480733B613B6923F400733B613B6813
:103AA0005B693A6913433B613B689B693A6913431D
:103AB0003B617B683A695A607B68FA689A613B6847
:103AC0005A687B685A637B687A691A6200BF1C3740
:103AD000BD4680BC704700BF002C014080B487B059
:103AE00000AF786039607B681B6A7B617B681B6A0A
:103AF00023F010027B681A627B685B683B617B681D
:103B00009B69FB60FB6823F4E043FB60FB6823F4E4
:103B10004073FB603B681B681B02FA681343FB6041
:103B20007B6923F020037B613B689B681B017A69FA
:103B300013437B617B681D4A93420DD17B6923F05F
:103B400080037B613B68DB681B017A6913437B61FF
:103B50007B6923F040037B617B68144A934213D155
:103B60003B6923F480633B613B6923F400633B6161
:103B70003B685B699B003A6913433B613B689B6907
:103B80009B003A6913433B617B683A695A607B68E2
:103B9000FA689A613B685A687B689A637B687A69BD
:103BA0001A6200BF1C37BD4680BC7047002C014024
:103BB00080B487B000AF786039607B681B6A7B6136
:103BC0007B681B6A23F480727B681A627B685B687F
:103BD0003B617B68DB69FB60FB6823F07003FB6083
:103BE000FB6823F00303FB603B681B68FA68134320
:103BF000FB607B6923F400737B613B689B681B025D
:103C00007A6913437B617B681D4A93420DD17B69BE
:103C100023F400637B613B68DB681B027A69134312
:103C20007B617B6923F480637B617B68144A9342E8
:103C300013D13B6923F480533B613B6923F4005368
:103C40003B613B685B691B013A6913433B613B681D
:103C50009B691B013A6913433B617B683A695A606F
:103C60007B68FA68DA613B685A687B68DA637B686C
:103C70007A691A6200BF1C37BD4680BC704700BF1E
:103C8000002C014080B487B000AF786039607B6859
:103C90001B6A3B617B681B6A23F480527B681A6253
:103CA0007B685B687B617B68DB69FB60FB6823F496
:103CB000E043FB60FB6823F44073FB603B681B68D8
:103CC0001B02FA681343FB603B6923F400533B611A
:103CD0003B689B681B033A6913433B617B680F4A4F
:103CE000934209D17B6923F480437B613B685B6924
:103CF0009B017A6913437B617B687A695A607B68B0
:103D0000FA68DA613B685A687B681A647B683A69CA
:103D10001A6200BF1C37BD4680BC7047002C0140B2
:103D200080B487B000AFF860B9607A60FB681B6A46
:103D30007B61FB681B6A23F00102FB681A62FB6867
:103D40009B693B613B6923F0F0033B617B681B018E
:103D50003A6913433B617B6923F00A037B617A690B
:103D6000BB6813437B61FB683A699A61FB687A69B7
:103D70001A6200BF1C37BD4680BC704780B487B054
:103D800000AFF860B9607A60FB681B6A7B61FB6812
:103D90001B6A23F01002FB681A62FB689B693B6197
:103DA0003B6923F470433B617B681B033A6913430F
:103DB0003B617B6923F0A0037B61BB681B017A69CF
:103DC00013437B61FB683A699A61FB687A691A62FE
:103DD00000BF1C37BD4680BC704780B485B000AFC3
:103DE000786039607B689B68FB60FB6823F0700338
:103DF000FB603A68FB68134343F00703FB607B6892
:103E0000FA689A6000BF1437BD4680BC704780B422
:103E100087B000AFF860B9607A603B60FB689B6870
:103E20007B617B6923F47F437B613B681A027B687B
:103E30001A43BB6813437A6913437B61FB687A6951
:103E40009A6000BF1C37BD4680BC704780B487B005
:103E500000AFF860B9607A60BB6803F01F0301220D
:103E600002FA03F37B61FB681A6A7B69DB431A4041
:103E7000FB681A62FB681A6ABB6803F01F03796863
:103E800001FA03F31A43FB681A6200BF1C37BD46F0
:103E900080BC704780B485B000AF786039607B68C3
:103EA00093F83C30012B01D1022341E07B680122D1
:103EB00083F83C207B68022283F83D207B681B68E6
:103EC0005B68FB607B681B689B68BB60FB6823F0DA
:103ED0007003FB603B681B68FA681343FB607B68F8
:103EE0001B68FA685A607B681B68144A934209D0C1
:103EF0007B681B68B3F1804F04D07B681B68104A55
:103F000093420CD1BB6823F08003BB603B685B68C5
:103F1000BA681343BB607B681B68BA689A607B68A9
:103F2000012283F83D207B68002283F83C20002397
:103F300018461437BD4680BC704700BF002C0140B6
:103F40000004004080B582B000AF78607B68002B31
:103F500001D1012342E07B6893F84130DBB2002BB2
:103F600006D17B68002283F840207868FDF754FB77
:103F70007B68242283F841207B681B68DA687B68B1
:103F80001B6822F40052DA60786800F01DF97B6843
:103F90001B681A697B681B6822F490421A617B686F
:103FA0001B685A697B681B6822F02A025A617B6889
:103FB0001B68DA687B681B6842F40052DA607B6831
:103FC00000225A647B68202283F841207B682022EB
:103FD00083F842207B6800225A6300231846083782
:103FE000BD4680BD80B58AB002AFF860B9603B6065
:103FF0001346FB8000237B61FB6893F84130DBB202
:10400000202B6DD1BB68002B02D0FB88002B01D187
:10401000012366E0FB6800225A64FB68212283F8D2
:104020004120FDF7BBFC7861FB68FA889A84FB6845
:10403000FA88DA84FB689B68B3F5805F08D1FB6877
:104040001B69002B04D10023FB61BB68BB6103E04B
:10405000BB68FB610023BB612AE03B6800937B697E
:1040600000228021F86800F040F80346002B01D0C0
:10407000032336E0FB69002B0BD1BB691B881A4672
:10408000FB681B68C2F308025A60BB690233BB615C
:1040900007E0FB691A78FB681B685A60FB6901330B
:1040A000FB61FB68DB8C9BB2013B9AB2FB68DA8454
:1040B000FB68DB8C9BB2002BCFD13B6800937B6904
:1040C00000224021F86800F010F80346002B01D0D0
:1040D000032306E0FB68202283F84120002300E050
:1040E000022318462037BD4680BD80B590B000AF92
:1040F000F860B9603B601346FB7150E0BB6CB3F1F4
:10410000FF3F4CD0BB6C002B07D0FDF747FC0246AD
:104110003B68D31ABA6C9A4241D2FB681B680C33D5
:10412000BB62BB6A53E8003F7B627B6A23F4D073B7
:10413000FB63FB681B680C33FA6B7A633B63396B78
:104140007A6B41E80023FB62FB6A002BE5D1FB6838
:104150001B6814337B617B6953E8003F3B613B691B
:1041600023F00103BB63FB681B681433BA6B3A622C
:10417000FB61F9693A6A41E80023BB61BB69002B26
:10418000E5D1FB68202283F84120FB68202283F8D8
:104190004220FB68002283F8402003230FE0FB68E5
:1041A0001B681A68BB681340BA689A420CBF0123A7
:1041B0000023DBB21A46FB799A429FD000231846AF
:1041C0004037BD4680BD000080B584B000AF786048
:1041D0007B681B681B6923F440517B68DA687B6845
:1041E0001B680A431A617B689A687B681B691A43DB
:1041F0007B685B691343BB607B681B68DB6823F4E7
:10420000B05323F00C037A681268B9680B43D3608B
:104210007B681B685B6923F440717B689A697B68E3
:104220001B680A435A617B681B682C4A934203D17E
:10423000FEF7E0FFF86002E0FEF7C8FFF860FA68FA
:1042400013469B0013449A001A447B685B689B00EA
:10425000B2FBF3F3224AA2FB03235B091901FA68BC
:1042600013469B0013449A001A447B685B689B00CA
:10427000B2FBF3F21A4BA3FB02035B09642000FBC1
:1042800003F3D31A1B013233154AA2FB03235B0944
:1042900003F0F0031944FA6813469B0013449A0094
:1042A0001A447B685B689B00B2FBF3F20C4BA3FBE8
:1042B00002035B09642000FB03F3D31A1B013233B2
:1042C000074AA2FB03235B0903F00F027B681B680C
:1042D0000A449A6000BF1037BD4680BD00380140D7
:1042E0001F85EB51002B2DE9F0471F46BBBF03F1A3
:1042F00000431F4600232D2388B01446129A109DB8
:104300001370149BDDF84CA023F02008B8F1460F81
:1043100005D0B8F1450F00D10135022300E0032399
:1043200007AA049206AACDE902A2CDE900352246E9
:104330003B4600F071FEB8F1470F064602D1119BD3
:10434000DB0722D5B8F1460F06EB050910D133780B
:10435000302B0AD10022002320463946FCF724FBEB
:1043600018B9C5F10105CAF80050DAF800309944CF
:104370000022002320463946FCF716FB08B1CDF891
:104380001C903022079B4B4507D33046079B159A5C
:104390009B1B136008B0BDE8F087591C07911A7089
:1043A000F0E70346F7B5002903F8022BB6BF2D222C
:1043B0002B224942092942702ADD0DF107021746D6
:1043C0000A2691FBF6F5944606FB151430340CF8DA
:1043D000014C0C46632C294602F1FF32F1DC3031EE
:1043E000ACF1020402F8011C2246411CBA420AD375
:1043F0000DF10902A2EB0C02BC4288BF002213445B
:10440000181A03B0F0BD12F8015B01F8015FEDE787
:10441000302330318370C170031DF1E72DE9F04F77
:1044200091B00C46DDF8688016461F46054600F040
:10443000E5FC036818460993FBF78AFE00230E93F8
:10444000D8F800300A90073323F0070303F108027D
:1044500094F81890D4F800B0C8F80020D3E900A868
:1044600052464346C4E9122328F000430B934FF011
:10447000FF3250469C4B0B99FCF7C8FA70BB4FF0CB
:10448000FF325046984B0B99FCF7A2FA30BB002242
:10449000002350464146FCF791FA10B12D2384F8D1
:1044A0004330924A924BB9F1470F94BF90469846D9
:1044B00003234FF0000A23612BF0040323603346EB
:1044C0002146284600970FAA00F0D6F9013040F0A7
:1044D00090804FF0FF3011B0BDE8F08F5246434658
:1044E00050464146FCF792FA48B1B8F1000FB8BF08
:1044F0002D23804AB8BF84F843307F4BD3E76368ED
:1045000009F0DF015A1C42D10623636000220692A3
:104510000EAACDE904920DAA4BF4806303920DF12B
:104520003302CDE901322360636852460093284686
:1045300043460B91FFF7D6FE0B99804647290D990C
:1045400008D1C81C02DB6368994240DDA9F1020969
:104550005FFA89F9B9F1650F1FD84A46013904F1AC
:1045600050000D91FFF71DFF0E9A82461318012A85
:10457000236102DC2268D20701D5013323619DF853
:104580003330002B9BD02D2384F8433097E7472905
:10459000BCD1002BBAD10123B7E7B9F1660F18D10E
:1045A000002963680BDD216113B92268D00702D5A9
:1045B00001330B4423614FF0000AA165DFE713B913
:1045C0002268D20701D50233F4E70123F2E74FF066
:1045D00067090E9B994205DB23682161D807EAD55C
:1045E0004B1CE7E70029CCBF0122C1F102021344B2
:1045F000E0E723685A0507D4236942463146284636
:10460000B84701302BD164E7B9F1650F40F2DD8086
:10461000D4E9120100220023FCF7C6F9002833D0A8
:10462000012331462846354AB84701303FF451AF9F
:10463000DDE90D239A4202DB2368D8070FD5DDE9B7
:10464000092331462846B84701303FF442AF4FF0C6
:10465000000804F11A090E9B013B434509DC23685D
:104660009B0700F10481E0680F9B9842B8BF184691
:1046700031E701234A4631462846B84701303FF426
:1046800028AF08F10108E6E70D9B002B38DC012379
:1046900031462846194AB84701303FF41AAFDDE9E0
:1046A0000D32134302D12368D907D8D5DDE9092398
:1046B00031462846B84701303FF40BAF4FF00009B0
:1046C00004F11A0A0D9B5B424B4501DC0E9B94E7FB
:1046D0000123524631462846B84701303FF4F9AE2F
:1046E00009F10109EEE700BFFFFFEF7F92700008BC
:1046F000967000089A7000089E700008A27000086A
:104700000E9AA36D9A42A8BF1A46002A914637DC3A
:104710004FF0000B29EAE97904F11A02D4F858A005
:10472000AAEB09035B4533DCDDE90D239A423BDB51
:104730002368DA0738D4DDE90D32A2EB0309A2EBD6
:104740000A029145A8BF9146B9F1000F34DC4FF041
:10475000000829EAE97904F11A0ADDE90D239B1A18
:10476000A3EB090343457FF77AAF01235246314655
:104770002846B84701303FF4ACAE08F10108ECE739
:104780001346314642462846B8470130C0D1A0E61C
:104790000123314628460B92B84701303FF499AEC9
:1047A0000B9A0BF1010BB9E73146DDE909232846E5
:1047B000B8470130BFD18CE64B463146284608EB5E
:1047C0000A02B8470130C2D183E60E9A012A01DC01
:1047D000DB0739D50123424631462846B847013028
:1047E0003FF477AEDDE9092331462846B84701306A
:1047F0003FF46FAED4E9120100220023DDF83890B7
:10480000FCF7D2F8D8B909F1FF3308F101023146BB
:104810002846B84701300ED15BE601234A463146AF
:104820002846B84701303FF454AE08F101080E9B0A
:10483000013B4345F1DC534604F15002DEE64FF004
:10484000000804F11A09F2E701234246DFE70123D9
:104850004A4631462846B84701303FF43AAE08F19F
:104860000108E3680F995B1A4345F0DCFBE64FF063
:10487000000804F11909F4E72DE9F04716469946B6
:104880008A680B6907469342B8BF1346336091F8B4
:1048900043200C46DDF820800AB1013333602368E1
:1048A000990642BF336802333360256815F0060568
:1048B00006D104F1190AE36832689B1AAB422BDC7B
:1048C00094F84320131E226818BF0123920630D4A7
:1048D0004946384604F14302C047013023D02368DB
:1048E000226903F00603042B14BF002533684FF040
:1048F000000608BFE56804F11A0408BFED1A54F871
:10490000123C08BF25EAE5759342C4BF9B1AED1817
:10491000B5421AD1002008E00123524649463846E4
:10492000C047013003D14FF0FF30BDE8F0870135BB
:10493000C1E73020E11881F843005A1C94F8451073
:104940002244023382F84310C2E70123224649463B
:104950003846C0470130E6D00136D9E72DE9FF4798
:104960000F7E9146782F80460C469A460C9D01F1A9
:10497000430207D8622F0AD8002F00F0D580582FA5
:1049800000F0C18004F1420584F842703AE0A7F1DA
:104990006303152BF6D801A151F823F0F54900085F
:1049A000094A00088549000885490008854900082A
:1049B00085490008094A000885490008854900081A
:1049C00085490008854900080F4B0008354A000852
:1049D000C94A00088549000885490008314B00088C
:1049E00085490008354A00088549000885490008BE
:1049F000D14A00082B681A1D1B682A6004F1420581
:104A000084F842300123A0E020682B68070603F1F8
:104A10000401296001D51E6803E04606FBD5B3F901
:104A20000060002E03DA2D23764284F843300A23F7
:104A3000594812E02B682068191D2960050601D528
:104A40001E6802E04106FBD51E886F2F0CBF0823AD
:104A50000A235148002184F843106568002DA8BF3F
:104A60002168A560A4BF21F0040121600EB9002DCA
:104A70004BD01546B6FBF3F103FB1167C75D05F894
:104A8000017D3746BB420E46F4D9082B0BD1236873
:104A9000DE0708D5236961689942DEBF302305F837
:104AA000013C05F1FF35521B22614B462146404631
:104AB000CDF800A003AAFFF7DFFE01304AD14FF086
:104AC000FF3004B0BDE8F087236843F02003236083
:104AD0007827324884F84570236829681F0651F802
:104AE000046B02D45F0648BFB6B2DF0748BF43F08D
:104AF0002003296048BF23601EB9236823F02003E8
:104B000023601023A6E72448E4E71546BDE72B6899
:104B10002668181D6169286035061B6801D5196073
:104B200002E07006FBD51980002315462361BCE71F
:104B30002B6800211A1D2A601D686268284600F053
:104B4000D4F908B1401B606063682361002384F8D6
:104B50004330AAE72A46494640462369D0470130F8
:104B6000ADD023689B0713D4E068039B9842B8BF7D
:104B70001846A6E70123324649464046D047013051
:104B80009DD00135E36803995B1AAB42F2DCEBE799
:104B9000002504F11906F5E7A4700008B5700008B7
:104BA000002310B50446C0E90033C0E90433836034
:104BB00081814366C2818361194608225C3000F01E
:104BC00014F90D4B246263620C4BA3620C4BE3623D
:104BD0000C4B23630C4B9C4206D003F168029442B9
:104BE00002D0D0339C4205D104F15800BDE81040FA
:104BF00000F078B910BD00BF654D0008874D000872
:104C0000BF4D0008E34D000814030020024A034989
:104C1000034800F069B800BF0C0000207D68000860
:104C20001800002041680C4B10B59942044601D091
:104C300001F024FEA168094B994202D0204601F000
:104C40001DFEE168064B994204D02046BDE81040A5
:104C500001F014BE10BD00BF140300207C0300202F
:104C6000E403002010B50B4B0B4C0C4A20461A6095
:104C700004210022FFF794FF04F1680001220921BA
:104C8000FFF78EFF04F1D0000222BDE81040122190
:104C9000FFF786BF4C040020140300200D4C0008D1
:104CA000014800F020B900BF55040020014800F081
:104CB0001BB900BF5504002010B50446FFF7F0FFF4
:104CC000236A1BB1BDE81040FFF7F0BF044B23621D
:104CD000044B1B68002BF5D1FFF7C4FFF2E700BFC0
:104CE000254C00084C0400202DE9F843074688466F
:104CF00014460026D4E90195B9F1010905D52468C7
:104D0000002CF7D13046BDE8F883AB89012B07D9D9
:104D1000B5F90E30013303D029463846C047064363
:104D20006835E9E70EB46FF0004100B59CB01DABEB
:104D300002900690079104910848094953F8042B02
:104D40000591006802A9019301F018FC0022029B62
:104D50001A701CB05DF804EB03B0704764000020CB
:104D60000802FFFF10B50C46B1F90E1000F06CF808
:104D70000028ABBF636DA3891B1823F48053ACBF1D
:104D80006365A38110BD2DE9F0411F468B8905465F
:104D9000DB050C46164605D502230022B1F90E109C
:104DA00000F040F8A389324623F48053A3812846BB
:104DB0003B46B4F90E10BDE8F04100F057B810B50D
:104DC0000C46B1F90E1000F02DF8431CA38915BF55
:104DD000606523F4805343F48053A38118BFA381FB
:104DE00010BDB1F90E1000F00DB803460244934215
:104DF00000D1704703F8011BF9E700000048704735
:104E00005801002038B50023054D044608462B60A4
:104E1000FCF7DAFC431C02D12B6803B1236038BDD8
:104E20005004002038B50446084611460022054DBE
:104E30002A601A46FCF7ECFC431C02D12B6803B134
:104E4000236038BD5004002038B50446084611469A
:104E50000022054D2A601A46FCF77DFC431C02D156
:104E60002B6803B1236038BD5004002038B50446D8
:104E7000084611460022054D2A601A46FCF788FCB8
:104E8000431C02D12B6803B1236038BD50040020BD
:104E9000014B1868704700BF6400002070B5002601
:104EA0000C4D0D4C641BA410A64209D102F086F8EB
:104EB00000260A4D0A4C641BA410A64205D170BD01
:104EC00055F8043B98470136EEE755F8043B984700
:104ED0000136F2E704740008047400080474000842
:104EE00008740008704770477047034610B5C9B290
:104EF00002449342184601D1002003E004780133B4
:104F00008C42F6D110BD2DE9F74F03690C690746B5
:104F1000A3427FDB013C00F1140501F1140805EB0D
:104F20008403019358F8243055F8242001339A4221
:104F3000B2FBF3F64FEA840B08EB840931D34FF050
:104F4000000E4046AC46F24650F8042B93B206FBE6
:104F500003E34FEA124E1A0C9BB206FB0E22AAEB99
:104F60000303DCF800A04FEA124E1FFA8AFA5344FA
:104F7000DCF800A092B2C2EB1A4202EB23429BB2D1
:104F800043EA024381454FEA224A4CF8043BDBD214
:104F900055F80B302BB9019B043B9D421A462DD38B
:104FA0003C61384601F092F9002823DB29460020B5
:104FB000013658F8042BD1F800C093B2C31A120C72
:104FC0001FFA8CF00344C2EB1C4202EB23429BB25B
:104FD00043EA0243C1454FEA224041F8043BE8D28C
:104FE00055F8242005EB840322B9043B9D421A4660
:104FF0000AD33C61304603B0BDE8F08F1268043B31
:10500000002ACDD1013CC8E71268043B002AF0D148
:10501000013CEBE70020EEE72DE9F04F16461F4676
:10502000C46999B00546CDE90467DDF8948074B988
:10503000102000F01DFE0246E86120B9EF21AC4BC4
:10504000AC4801F07BFCC0E901440460C460EB693A
:10505000196851B15A68012393404A608B60284611
:1050600000F0FAFE0022EB691A603B1EAFBF00237E
:10507000012223F000430593A8BFC8F80030DDF8F3
:1050800014909D4BB8BFC8F8002033EA090319D12A
:1050900042F20F73249A1360C9F31303334300F0F1
:1050A0008985269B53B9954B23E0954B0393083391
:1050B000269A1360039819B0BDE8F08F8F4B0393C5
:1050C0000333F5E7DDE90434CDE90C34DDE90C0107
:1050D00000220023FBF768FC804660B10123249A7C
:1050E0001360269B002B00F06285864B269A136086
:1050F000013B0393DEE716AB019317AB0093284601
:10510000DDE90C2301F08AF9C9F30A548246002C28
:105110007ED0DDE90C010D9BA4F2FF34C3F3130331
:1051200043F07F5343F44013CDF84C8019460022DE
:10513000754BFBF719F868A3D3E90023FBF7CCF90B
:1051400067A3D3E90023FBF711F8064620460F4674
:10515000FBF758F964A3D3E90023FBF7BDF9024636
:105160000B4630463946FBF701F806460F46FBF77B
:1051700063FC00228346002330463946FBF71EFCC1
:1051800048B15846FBF73EF932463B46FBF70CFC6C
:1051900008B90BF1FF3BBBF1160F57D8DDE90C0145
:1051A0005A4B03EBCB03D3E90023FBF707FC0028A2
:1051B0004ED000230BF1FF3B0F93169B1B1B5A1E77
:1051C00046BFC3F1010900234FF00009099248BF0F
:1051D0000993BBF1000F3DDB099BCDF838B05B4470
:1051E000099300230A93229B092B67D8052BC4BF80
:1051F000043B2293229BC8BF0024A3F10203D8BF23
:105200000124032B00F28680DFE803F02C393756A7
:10521000DDE916431C4404F23243202BC1BFC3F125
:10522000400309FA03F904F2124326FA03F3D6BF46
:10523000C3F1200349EA030006FA03F0FBF7D2F8B2
:105240000122A1F1F873013C13926FE70123B3E748
:105250000F90B2E7CBF100030A930023A9EB0B09EF
:105260000E93C0E700230B93239B002B55DC0123F7
:105270001A460693089323920BE00123F3E70023D9
:105280000B93239B5B4406930133012B0893B8BF18
:10529000012300210422E86902F114069E4240D94C
:1052A0004160284600F098FD039000283CD102465A
:1052B00040F2AF11164BC3E60123E1E701240023BE
:1052C0000B9422934FF0FF3300220693089312238E
:1052D000D1E700BFAFF3008061436F63A787D23F80
:1052E000B3C8608B288AC63FFB799F501344D33FD5
:1052F000D3700008EA7000080000F07FCF7000084B
:10530000C6700008A37000080000F83FD8710008BC
:105310004271000801230B93D4E7239B0693089363
:10532000B7E701315200B7E7EB69039A1A60089BAF
:105330000E2B00F2A880002C00F0A580BBF1000F1E
:1053400034DD9A4B0BF00F0203EBC2031BF4807F9A
:10535000D3E90034CDE910344FEA2B1416D0DDE93F
:105360000C01934B0327D3E90823FBF7DFF9CDE9C1
:10537000040104F00F048E4E54B9DDE91023DDE979
:105380000401FBF7D3F9CDE9040129E00227F2E794
:10539000E10708D5DDE91001D6E90023FBF79CF809
:1053A000CDE91001013764100836E5E700F0A5806B
:1053B000DDE90C01CBF100047C4B04F00F0203EBA0
:1053C000C203D3E90023FBF787F802270023CDE9C6
:1053D0000401774E2411002C40F08480002BD2D1A0
:1053E000DDE90434CDE910340F9B002B00F08780F9
:1053F000DDE9100100226F4BFBF7E0FA00287ED0B8
:10540000089B002B7BD0069B002B38DDDDE91001CB
:105410000022694BFBF760F8CDE90401069C0BF113
:10542000FF3801373846FAF7EDFFDDE90423FBF7D3
:1054300053F80022614BFAF799FEA1F15076CDE9BD
:1054400010011196002C5DD1DDE9040100225C4BB6
:10545000FAF78AFE02460B46CDE904233346109A3A
:10546000FBF7CAFA002840F09582DDE90401109AA2
:1054700006F10043FBF7A2FA002840F08982DDE93B
:105480000C34CDE90434179B002BC0F25181BBF1E1
:105490000E0F00F34D81454B03EBCB03D3E90034F2
:1054A000CDE90634239B002B80F2DA80089B002B89
:1054B00000F3D68040F06B82DDE906010022404B0C
:1054C000FBF70AF8DDE90423FBF78CFA089C264673
:1054D000002840F041823123039F0BF1010B07F8B4
:1054E000013B3DE2E20705D5D6E90023FAF7F4FFD8
:1054F00001230137641008366DE7022770E7D846AC
:10550000089C8FE70399294B214412910B9903EBD7
:10551000C403DDE9106753E90223002954D00020B9
:105520002849FBF703F93B463246FAF71DFECDE961
:105530001001039FDDE90401FBF77EFA0446FAF748
:1055400061FF02460B46DDE90401FAF70DFE024653
:105550000B463034CDE90423DDE9102307F8014B75
:10556000FBF72CFA002873D1DDE904230020114950
:10557000FAF7FAFDDDE91023FBF720FA002840F0E6
:10558000B680129B9F423FF47AAFDDE91001002202
:10559000094BFAF7A1FF0022CDE91001DDE9040172
:1055A000054BFAF799FFCDE90401C3E7D87100086C
:1055B000B07100080000F03F0000244000001C40D3
:1055C000000014400000E03F30463946FAF784FFFF
:1055D000129BCDE91001039C1493DDE90401FBF754
:1055E0002BFA1590FAF70EFF02460B46DDE904018F
:1055F000FAF7BAFD159B0646303304F8013B129BBF
:105600000F469C424FF0000224D1DDE91001AF4B60
:10561000FAF7ACFD02460B4630463946FBF7ECF98B
:10562000002863D1DDE910230020A849FAF79CFD8A
:1056300002460B4630463946FBF7C0F900283FF4D6
:105640001EAF149F7B1E149317F8013C302BF8D02B
:10565000C3463BE09E4BFAF73FFFCDE90401BCE7B0
:10566000039FDDE90489DDE9062340464946FBF74F
:105670005DF8FBF7E1F90446FAF7C4FEDDE906231D
:10568000FAF72AFF02460B4640464946FAF76CFDF8
:1056900004F1300607F8016B039EDDF820C0BE1B45
:1056A000B44502460B4636D1FAF760FDDDE9062324
:1056B00080468946FBF7A0F958BBDDE90623404642
:1056C0004946FBF771F908B1E30722D45146284651
:1056D00000F0C2FB0023249A3B700BF1010313601E
:1056E000269B002B3FF4E6AC1F60E3E427463B46D5
:1056F0001F4613F8012D392A07D1039A9A42F7D190
:105700003022039908F101080A701A7801321A70E0
:105710009EE7D846EBE700226D4BFAF7DDFE00224C
:10572000002380468946FBF73FF900289BD0CDE750
:105730000B9A002A00F0C480229A012A00F3A88064
:10574000139A002A00F0A08003F233434F460A9CCC
:10575000099A01211A4428469944099200F032FC22
:1057600006465FB1099B002B08DDBB42A8BF3B4644
:10577000099AA9EB0309FF1AD31A09930A9BF3B1FB
:105780000B9B002B00F0A080002C10DD3146224640
:10579000284600F0D5FC524601460646284600F051
:1057A00027FC80465146284600F056FBC2460A9B1D
:1057B0001A1B04D05146284600F0C2FC8246012143
:1057C000284600F0FFFB0E9B0446002B40F382802E
:1057D0001A460146284600F0B3FC229B0446012BE2
:1057E0007BDD4FF00008236904EB8303186900F0A8
:1057F0009BFBC0F12000099B184410F01F0000F033
:105800009280C0F12003042B40F38580099BC0F1F6
:105810001C000344814407440993B9F1000F05DDDE
:1058200051464A46284600F0E5FC8246099B002B7B
:1058300005DD21461A46284600F0DCFC04460F9B95
:10584000002B72D02146504600F040FD00286CDA53
:10585000002351460A22284600F020FB0B9B82467B
:105860000BF1FF3B002B00F0AC81002331460A22F4
:10587000284600F013FB069B0646002B00F393809E
:10588000229B022B59DC8EE0169BC3F136035DE7A9
:10589000089B5C1E0A9BA342BFBF0A9B0E9AE31A99
:1058A000D218A8BF1C1B089BBEBF0A940E920024EE
:1058B000002BB5BFA9EB03074F460023089B47E722
:1058C0004F460A9C0B9E4CE70A9A73E70000E03FA4
:1058D00000002440229B012B18DC049BB3B9059BDC
:1058E000C3F3130393B9059B23F000431B0D1B0562
:1058F0007BB14FF00108099B09F1010901330993BC
:105900000E9B002B7FF46FAF012074E74FF000086F
:10591000F6E79846F4E780D0099A1C331A44994474
:105920001F44099279E70346F6E7089B002B34DC15
:10593000229B022B31DD089B0693069B63B921460F
:105940000522284600F0AAFA01460446504600F017
:10595000BDFC00283FF7BFAD239B039F6FEA030BFD
:105960004FF000082146284600F076FA002E3FF45A
:10597000ADAEB8F1000F05D0B04503D04146284682
:1059800000F06AFA3146284600F066FA9EE60024E6
:105990002646E1E7C34626469DE50B9B002B00F01B
:1059A000C880089B0693002F05DD31463A462846FD
:1059B00000F020FC0646B8F1000F5BD02846716865
:1059C00000F00AFA074628B9024640F2EF21814B5F
:1059D000FFF736BB326906F10C01023292000C303F
:1059E00000F09EFF01223946284600F003FCB04635
:1059F0000646039B039A01330893069B13440B93BB
:105A0000049B03F001030A93089B2146013B504687
:105A10000493FFF778FA4146069000F130095046AA
:105A200000F054FC324609902146284600F06AFCFA
:105A3000C268074602BB0146504600F047FC0246DA
:105A4000394628460C9200F007FA229B0C9A089FD0
:105A500043EA02010A9B194310D1B9F1390F29D049
:105A6000099B002B02DD069B03F13109049B83F89F
:105A7000009077E73046BAE70122E1E7099B002B67
:105A800004DB22990B430A990B4320D1002AEDDD58
:105A900051460122284600F0ADFB2146824600F027
:105AA00015FC002803DCE1D119F0010FDED0B9F1BB
:105AB000390FD8D13923049A13703B461F4617F883
:105AC000012C013B392A6BD001321A704AE7002AB7
:105AD00007DDB9F1390FEDD0049A09F10103137014
