:020000040800F2
:10000000002800203D080008E1070008E707000875
:10001000ED070008F3070008F907000800000000DA
:10002000000000000000000000000000FF070008C2
:100030000B0800080000000017080008230800084B
:10004000850800088508000885080008850800085C
:10005000850800088508000885080008850800084C
:10006000850800088508000885080008850800083C
:10007000850800088508000885080008850800082C
:10008000850800088508000885080008850800081C
:10009000850800088508000885080008850800080C
:1000A00085080008850800088508000885080008FC
:1000B0008508000885080008000000008508000881
:1000C0008508000800000000000000008508000806
:1000D00000000000850800088508000800000000F6
:1000E0008508000885080008850800080000000051
:1000F0000000000000000000000000000000000000
:0C01000000000000000000005FF808F1A3
:10010C0010B5054C237833B9044B13B10448AFF345
:10011C0000800123237010BD0C00002000000000A3
:10012C00D029000808B5034B1BB103490348AFF3B2
:10013C00008008BD0000000010000020D02900083D
:10014C0080B584B002AF00F099FB00F049F800F0E4
:10015C00CDF900F0D3F800F093F800F051F9042138
:10016C001A4801F0EBFE4FF0804364229A63184862
:10017C0000F0E2FC0021174801F0E0FE04211648D3
:10018C0001F088F90346002B04D14FF080434B2239
:10019C009A6303E04FF0804364229A630C4800F0AA
:1001AC0079FD7860786864230093322340F6FF72FF
:1001BC00002100F0D1F903463B60084A3B685363C9
:1001CC004FF4FA6000F0BCFBD8E700BF58000020E9
:1001DC0028000020A000002000080140000400407E
:1001EC0080B594B000AF07F12803282200211846EF
:1001FC0002F0BCFB07F1140300221A605A609A60EB
:10020C00DA601A613B1D00221A605A609A60DA604B
:10021C000223BB620123BB631023FB6300237B64BB
:10022C0007F12803184601F04DF90346002B01D0C5
:10023C0000F0ADF90F237B610023BB610023FB6150
:10024C0000233B6200237B6207F114030021184654
:10025C0001F0BAFB0346002B01D000F098F9022301
:10026C007B600023FB603B1D184601F009FD034633
:10027C00002B01D000F08BF900BF5037BD4680BD7C
:10028C0080B584B000AF3B1D00221A605A609A60A2
:10029C00184B194A1A60174B00229A60154B012211
:1002AC001A73144B00221A75124B4FF46022DA6148
:1002BC00104B00225A600F4B01221A610D4800F0BE
:1002CC0063FB0346002B01D000F061F903237B6034
:1002DC000123BB600623FB603B1D1946054800F05B
:1002EC00E5FC0346002B01D000F051F900BF10379C
:1002FC00BD4680BD280000200024014080B58EB092
:10030C0000AF07F1280300221A605A609A60DA6085
:10031C0007F1200300221A605A603B1D00221A606C
:10032C005A609A60DA601A615A619A61334B4FF0E5
:10033C0080421A60314B9F225A60304B00229A60E7
:10034C002E4B40F2E732DA602C4B00221A612B4B19
:10035C0000229A61294801F049FD0346002B01D087
:10036C0000F015F94FF48053BB6207F128031946CE
:10037C00224801F041FF0346002B01D000F007F9A1
:10038C001E4801F082FD0346002B01D000F0FFF85F
:10039C0000233B6200237B6207F1200319461748B8
:1003AC0002F08CFA0346002B01D000F0F0F8702319
:1003BC007B600023BB600023FB6000237B613B1D43
:1003CC00042219460D4801F055FE0346002B01D0BE
:1003DC0000F0DDF860237B603B1D0C2219460748BA
:1003EC0001F048FE0346002B01D000F0D0F8034882
:1003FC0000F070F900BF3837BD4680BD58000020B2
:10040C0080B58EB000AF07F1280300221A605A6045
:10041C009A60DA6007F1200300221A605A603B1DD3
:10042C0000221A605A609A60DA601A615A619A6105
:10043C002C4B2D4A1A602B4B9F225A60294B0022C1
:10044C009A60284B40F2E732DA60264B00221A61A0
:10045C00244B00229A61234801F0C8FC0346002B70
:10046C0001D000F094F84FF48053BB6207F12803DD
:10047C0019461C4801F0C0FE0346002B01D000F0C9
:10048C0086F8184801F001FD0346002B01D000F05E
:10049C007EF800233B6200237B6207F120031946A0
:1004AC00104802F00BFA0346002B01D000F06FF855
:1004BC0070237B600023BB600023FB6000237B6107
:1004CC003B1D00221946074801F0D4FD0346002BC2
:1004DC0001D000F05CF8034800F0FCF800BF38379E
:1004EC00BD4680BDA00000200004004080B586B051
:1004FC0000AF07F1080300221A605A609A60DA60B4
:10050C00134B9B69124A43F004039361104B9B6994
:10051C0003F004037B607B680D4B9B690C4A43F032
:10052C00080393610A4B9B6903F008033B603B682B
:10053C000423BB600023FB6002233B6107F108032B
:10054C001946044800F02AFE00BF1837BD4680BD8E
:10055C00001002400008014080B485B000AFF86084
:10056C00B9607A603B60FA68BB68D31AB9693A68BB
:10057C008A1A03FB02F27968BB68CB1A92FBF3F27E
:10058C003B68134418461437BD4680BC704780B492
:10059C0000AF72B600BFFEE780B485B000AF154B5C
:1005AC009B69144A43F001039361124B9B6903F05E
:1005BC000103BB60BB680F4BDB690E4A43F08053F1
:1005CC00D3610C4BDB6903F080537B607B680A4B77
:1005DC005B68FB60FB6823F0E063FB60FB6843F047
:1005EC008063FB60044AFB68536000BF1437BD4650
:1005FC0080BC7047001002400000014080B588B0FC
:10060C0000AF786007F1100300221A605A609A60FC
:10061C00DA607B681B68144A934221D1134B9B69A7
:10062C00124A43F400739361104B9B6903F40073FB
:10063C00FB60FB680D4B9B690C4A43F00403936110
:10064C000A4B9B6903F00403BB60BB6808233B6146
:10065C0003237B6107F110031946054800F09EFD4A
:10066C0000BF2037BD4680BD002401400010024071
:10067C000008014080B485B000AF78607B681B68CF
:10068C00B3F1804F0CD1114BDB69104A43F00103DD
:10069C00D3610E4BDB6903F00103FB60FB6810E0D8
:1006AC007B681B680A4A93420BD1084BDB69074AEB
:1006BC0043F00203D361054BDB6903F00203BB601B
:1006CC00BB6800BF1437BD4680BC704700100240A9
:1006DC000004004080B58AB000AF786007F11403C5
:1006EC0000221A605A609A60DA607B681B68B3F16A
:1006FC00804F43D1324B9B69314A43F004039361E1
:10070C002F4B9B6903F004033B613B692C4B9B69AA
:10071C002B4A43F008039361294B9B6903F00803B0
:10072C00FB60FB6802237B610223BB6102233B62FB
:10073C0007F114031946234800F030FD4FF4006311
:10074C007B610223BB6102233B6207F11403194650
:10075C001D4800F023FD1D4B5B687B627B6A23F414
:10076C0040737B627B6A43F0E0637B627B6A43F499
:10077C0000737B62154A7B6A53601CE07B681B68C4
:10078C00134A934217D10E4B9B690D4A43F0040355
:10079C0093610B4B9B6903F00403BB60BB68402364
:1007AC007B610223BB6102233B6207F114031946F0
:1007BC00044800F0F3FC00BF2837BD4680BD00BFE5
:1007CC000010024000080140000C014000000140F4
:1007DC000004004080B400AFFEE780B400AFFEE739
:1007EC0080B400AFFEE780B400AFFEE780B400AF8A
:1007FC00FEE780B400AF00BFBD4680BC704780B43C
:10080C0000AF00BFBD4680BC704780B400AF00BFD6
:10081C00BD4680BC704780B500AF00F075F800BFD6
:10082C0080BD80B400AF00BFBD4680BC70470000E7
:10083C00FFF7F7FF0B480C490C4A002302E0D45891
:10084C00C4500433C4188C42F9D3094A094C002310
:10085C0001E013600432A242FBD302F08FF8FFF7E1
:10086C006FFC7047000000200C000020142A0008C8
:10087C000C000020EC000020FEE7000080B500AF6B
:10088C00084B1B68074A43F010031360032000F069
:10089C0051FC0F2000F008F8FFF77EFE00231846ED
:1008AC0080BD00BF0020024080B582B000AF7860F0
:1008BC00124B1A68124B1B7819464FF47A73B3FB20
:1008CC00F1F3B2FBF3F3184600F05BFC0346002B8C
:1008DC0001D001230EE07B680F2B0AD80022796827
:1008EC004FF0FF3000F031FC064A7B6813600023A8
:1008FC0000E0012318460837BD4680BD00000020EB
:10090C00080000200400002080B400AF054B1B78C9
:10091C001A46054B1B681344034A136000BFBD46BF
:10092C0080BC704708000020E800002080B400AFB5
:10093C00024B1B681846BD4680BC7047E80000207F
:10094C0080B584B000AF7860FFF7F0FFB8607B68CB
:10095C00FB60FB68B3F1FF3F05D00A4B1B781A46CE
:10096C00FB681344FB6000BFFFF7E0FF0246BB6867
:10097C00D31AFA689A42F7D800BF00BF1037BD46A9
:10098C0080BD00BF0800002080B586B000AF786045
:10099C000023FB7500233B610023BB600023FB603D
:1009AC007B68002B01D10123BEE07B689B68002B88
:1009BC007B689B6A002B09D17B680022DA627B681A
:1009CC00002283F824207868FFF718FE786800F07E
:1009DC00BFFA0346FB757B689B6A03F01003002B80
:1009EC0040F09980FB7D002B40F095807B689B6AE2
:1009FC0023F4885323F0020343F002027B689A62CB
:100A0C007B685A687B68DB691A437B681B7B5B00DD
:100A1C001343BA681343BB607B689B68B3F5807F54
:100A2C0003D07B689B68012B02D14FF4807300E0EC
:100A3C0000233A6913433B617B681B7D012B19D161
:100A4C007B681B7B002B09D17B689B69013B5A039C
:100A5C003B69134343F400633B610BE07B689B6A87
:100A6C0043F020027B689A627B68DB6A43F00102E8
:100A7C007B68DA627B681B685B6823F469417B687E
:100A8C001B683A690A435A607B681B689A68284B52
:100A9C0013407A681268B9680B4393607B689B6853
:100AAC00B3F5807F03D07B689B68012B04D17B68F6
:100ABC001B69013B1B05FB607B681B68DB6A23F42D
:100ACC0070017B681B68FA680A43DA627B681B68F2
:100ADC009A68184B1340BA689A420BD17B68002273
:100AEC00DA627B689B6A23F0030343F001027B68A4
:100AFC009A6218E07B689B6A23F0120343F01002A1
:100B0C007B689A627B68DB6A43F001027B68DA627D
:100B1C000123FB7507E07B689B6A43F010027B683E
:100B2C009A620123FB75FB7D18461837BD4680BDC4
:100B3C00FDF7E1FFFE0E1FFF80B584B000AF7860BB
:100B4C000023FB737B6893F82430012B01D1022323
:100B5C0098E07B68012283F82420786800F09EF9E5
:100B6C000346FB73FB7B002B40F087807B689B6A02
:100B7C0023F4407323F0010343F480727B689A6280
:100B8C007B681B68414A934205D1414B5B6803F477
:100B9C007023002B15D17B689B6A23F480127B6831
:100BAC009A627B681B685B6803F48063002B26D019
:100BBC007B689B6A23F4405343F480527B689A62AF
:100BCC001DE07B689B6A43F480127B689A627B68A9
:100BDC001B682F4A934204D07B681B682B4A9342B4
:100BEC000DD12B4B5B6803F48063002B07D07B6823
:100BFC009B6A23F4405343F480527B689A627B686F
:100C0C009B6A03F48053002B06D07B68DB6A23F0CD
:100C1C0006027B68DA6202E07B680022DA627B689B
:100C2C00002283F824207B681B686FF002021A6094
:100C3C007B681B689B6803F46023B3F5602F13D1AA
:100C4C007B681B68114A934205D1114B5B6803F416
:100C5C007023002B08D17B681B689A687B681B6823
:100C6C0042F4A0029A600CE07B681B689A687B686F
:100C7C001B6842F480129A6003E07B68002283F8C0
:100C8C002420FB7B18461037BD4680BD0028014050
:100C9C000024014080B483B000AF78607B681B688F
:100CAC00DB6C18460C37BD4680BC704780B485B0F1
:100CBC0000AF786039600023FB730023BB607B6856
:100CCC0093F82430012B01D10223DCE07B68012254
:100CDC0083F824203B685B68062B1CD87B681B6858
:100CEC00596B3B685A6813469B001344053B1F2203
:100CFC0002FA03F3DB4319403B6818683B685A68F7
:100D0C0013469B001344053B00FA03F27B681B68F7
:100D1C000A435A633CE03B685B680C2B1CD87B682D
:100D2C001B68196B3B685A6813469B001344233BA2
:100D3C001F2202FA03F3DB4319403B6818683B6837
:100D4C005A6813469B001344233B00FA03F27B685A
:100D5C001B680A431A631BE07B681B68D96A3B68F3
:100D6C005A6813469B001344413B1F2202FA03F3BB
:100D7C00DB4319403B6818683B685A6813469B0074
:100D8C001344413B00FA03F27B681B680A43DA62A6
:100D9C003B681B68092B1CD97B681B68D9683B68AE
:100DAC001A6813465B0013441E3B072202FA03F336
:100DBC00DB4319403B6898683B681A6813465B0034
:100DCC0013441E3B00FA03F27B681B680A43DA608B
:100DDC0019E07B681B6819693B681A6813465B004D
:100DEC001344072202FA03F3DB4319403B6898686B
:100DFC003B681A6813465B00134400FA03F27B68E5
:100E0C001B680A431A613B681B68102B03D03B68B4
:100E1C001B68112B32D17B681B681D4A934225D16C
:100E2C007B681B689B6803F40003002B26D17B684E
:100E3C001B689A687B681B6842F400029A603B68E6
:100E4C001B68102B1AD1134B1B68134AA2FB0323EC
:100E5C009A0C13469B0013445B00BB6002E0BB681A
:100E6C00013BBB60BB68002BF9D107E07B689B6A38
:100E7C0043F020027B689A620123FB737B6800229B
:100E8C0083F82420FB7B18461437BD4680BC704782
:100E9C00002401400000002083DE1B4380B584B099
:100EAC0000AF78600023FB600023BB607B681B688D
:100EBC009B6803F00103012B40D07B681B689A6888
:100ECC007B681B6842F001029A601F4B1B681F4A2B
:100EDC00A2FB03239B0CBB6002E0BB68013BBB6025
:100EEC00BB68002BF9D1FFF721FDF8601FE0FFF77D
:100EFC001DFD0246FB68D31A022B18D97B681B68B0
:100F0C009B6803F00103012B11D07B689B6A43F0B3
:100F1C0010027B689A627B68DB6A43F001027B6893
:100F2C00DA627B68002283F82420012307E07B68C7
:100F3C001B689B6803F00103012BD8D100231846D2
:100F4C001037BD4680BD00BF0000002083DE1B4370
:100F5C0080B584B000AF78600023FB607B681B68B1
:100F6C009B6803F00103012B2ED17B681B689A68E8
:100F7C007B681B6822F001029A60FFF7D7FCF860CF
:100F8C001BE0FFF7D3FC0246FB68D31A022B14D9E3
:100F9C007B681B689B6803F00103012B0DD17B68F8
:100FAC009B6A43F010027B689A627B68DB6A43F0B1
:100FBC0001027B68DA62012307E07B681B689B688F
:100FCC0003F00103012BDCD0002318461037BD467B
:100FDC0080BD000080B485B000AF78607B6803F002
:100FEC000703FB600C4BDB68BB60BA684FF6FF0372
:100FFC001340BB60FB681A02BB68134343F0BF632A
:10100C0043F40033BB60044ABB68D36000BF1437A1
:10101C00BD4680BC704700BF00ED00E080B400AF5F
:10102C00044BDB681B0A03F007031846BD4680BC63
:10103C00704700BF00ED00E080B483B000AF034602
:10104C003960FB7197F90730002B0ADB3B68DAB289
:10105C000C4997F907301201D2B20B4483F80023E4
:10106C000AE03B68DAB20849FB7903F00F03043B52
:10107C001201D2B20B441A7600BF0C37BD4680BCAD
:10108C00704700BF00E100E000ED00E080B489B0E3
:10109C0000AFF860B9607A60FB6803F00703FB618E
:1010AC00FB69C3F10703042B28BF0423BB61FB6955
:1010BC000433062B02D9FB69033B00E000237B6160
:1010CC004FF0FF32BB6902FA03F3DA43BB681A40F4
:1010DC007B699A404FF0FF317B6901FA03F3D943E6
:1010EC007B680B40134318462437BD4680BC7047C1
:1010FC0080B582B000AF78607B68013BB3F1807F34
:10110C0001D301230FE00A4A7B68013B53600F2196
:10111C004FF0FF30FFF790FF054B00229A60044B15
:10112C0007221A60002318460837BD4680BD00BF51
:10113C0010E000E080B582B000AF78607868FFF70F
:10114C0049FF00BF0837BD4680BD80B586B000AFF3
:10115C000346B9607A60FB7300237B61FFF75EFF87
:10116C0078617A68B9687869FFF790FF024697F959
:10117C000F3011461846FFF75FFF00BF1837BD460A
:10118C0080BD80B582B000AF78607868FFF7B0FFA3
:10119C00034618460837BD4680BD000080B48BB0AE
:1011AC0000AF7860396000237B6200233B6261E111
:1011BC0001227B6A02FA03F3FB613B681B68FA6944
:1011CC001340BB61BA69FB699A4240F050813B689D
:1011DC005B68974A93425ED0954A934275D8954A7C
:1011EC00934258D0934A93426FD8934A934252D029
:1011FC00914A934269D8914A93424CD08F4A934278
:10120C0063D88F4A934246D08D4A93425DD8122BB5
:10121C002AD8122B59D801A252F823F0A312000895
:10122C007D1200088F120008D1120008D712000896
:10123C00D7120008D7120008D7120008D7120008DE
:10124C00D7120008D7120008D7120008D7120008CE
:10125C00D7120008D7120008D7120008D7120008BE
:10126C008512000899120008764A934213D02CE09C
:10127C003B68DB683B6229E03B68DB6804333B621C
:10128C0024E03B68DB6808333B621FE03B68DB68AB
:10129C000C333B621AE03B689B68002B02D10423A1
:1012AC003B6213E03B689B68012B05D108233B6232
:1012BC007B68FA691A6109E008233B627B68FA696A
:1012CC005A6103E000233B6200E000BFBB69FF2BC7
:1012DC0001D87B6801E07B6804337B61BB69FF2B21
:1012EC0002D87B6A9B0002E07B6A083B9B003B6157
:1012FC007B691A680F213B6901FA03F3DB431A403F
:10130C00396A3B6901FA03F31A437B691A603B683B
:10131C005B6803F08053002B00F0A9804A4B9B695B
:10132C00494A43F001039361474B9B6903F0010366
:10133C00BB60BB68454A7B6A9B08023352F823307A
:10134C00FB607B6A03F003039B000F2202FA03F39A
:10135C00DB43FA681340FB607B683D4A93420DD037
:10136C007B683C4A934207D07B683B4A934201D14D
:10137C00022304E0032302E0012300E000237A6A45
:10138C0002F0030292009340FA681343FB602F496A
:10139C007B6A9B080233FA6841F823203B685B6840
:1013AC0003F48013002B06D02C4B9A682B49BB6995
:1013BC0013438B6006E0294B9A68BB69DB432749D2
:1013CC0013408B603B685B6803F40013002B06D062
:1013DC00224BDA682149BB691343CB6006E01F4BF3
:1013EC00DA68BB69DB431D491340CB603B685B6823
:1013FC0003F40033002B06D0184B5A681749BB690D
:10140C0013434B6006E0154B5A68BB69DB43134929
:10141C0013404B603B685B6803F48033002B1FD098
:10142C000E4B1A680D49BB6913430B601FE000BFDC
:10143C0000003210000031100000221000002110BA
:10144C0000001210000011100010024000000140BA
:10145C0000080140000C0140001001400004014054
:10146C000B4B1A68BB69DB43094913400B607B6A61
:10147C0001337B623B681A687B6A22FA03F3002B08
:10148C007FF496AE00BF00BF2C37BD4680BC7047C2
:10149C000004014080B485B000AF78600B467B80BF
:1014AC007B689A687B881340002B02D00123FB7366
:1014BC0001E00023FB73FB7B18461437BD4680BC50
:1014CC007047000080B586B000AF78607B68002B59
:1014DC0001D1012372E27B681B6803F00103002B2E
:1014EC0000F08780924B5B6803F00C03042B0CD04C
:1014FC008F4B5B6803F00C03082B12D18C4B5B6891
:10150C0003F48033B3F5803F0BD1894B1B6803F494
:10151C000033002B6CD07B685B68002B68D10123F7
:10152C004CE27B685B68B3F5803F06D1804B1B684F
:10153C007F4A43F4803313602EE07B685B68002B9A
:10154C000CD17B4B1B687A4A23F480331360784BA5
:10155C001B68774A23F4802313601DE07B685B686B
:10156C00B3F5A02F0CD1724B1B68714A43F4802346
:10157C0013606F4B1B686E4A43F4803313600BE0AF
:10158C006B4B1B686A4A23F480331360684B1B68EF
:10159C00674A23F4802313607B685B68002B13D0AD
:1015AC00FFF7C4F9386108E0FFF7C0F902463B6960
:1015BC00D31A642B01D9032300E25D4B1B6803F49F
:1015CC000033002BF0D014E0FFF7B0F9386108E0DD
:1015DC00FFF7ACF902463B69D31A642B01D90323FC
:1015EC00ECE1534B1B6803F40033002BF0D100E00B
:1015FC0000BF7B681B6803F00203002B63D04C4BCD
:10160C005B6803F00C03002B0BD0494B5B6803F0B9
:10161C000C03082B1CD1464B5B6803F48033002B66
:10162C0016D1434B1B6803F00203002B05D07B68DB
:10163C001B69012B01D00123C0E13D4B1B6823F03A
:10164C00F8027B685B69DB00394913430B603AE0B5
:10165C007B681B69002B20D0364B01221A60FFF7E8
:10166C0065F9386108E0FFF761F902463B69D31A66
:10167C00022B01D90323A1E12D4B1B6803F00203BC
:10168C00002BF0D02A4B1B6823F0F8027B685B69B7
:10169C00DB00274913430B6015E0264B00221A6030
:1016AC00FFF744F9386108E0FFF740F902463B695F
:1016BC00D31A022B01D9032380E11D4B1B6803F0C5
:1016CC000203002BF0D17B681B6803F00803002B8E
:1016DC003AD07B689B69002B19D0174B01221A60FA
:1016EC00FFF724F9386108E0FFF720F902463B695F
:1016FC00D31A022B01D9032360E10D4B5B6A03F073
:10170C000203002BF0D0012000F09CFA1CE00A4BE5
:10171C0000221A60FFF70AF938610FE0FFF706F9AB
:10172C0002463B69D31A022B08D9032346E100BFBA
:10173C00001002400000424280044242924B5B6A1D
:10174C0003F00203002BE9D17B681B6803F0040350
:10175C00002B00F0A6800023FB758B4BDB6903F09C
:10176C008053002B0DD1884BDB69874A43F08053A3
:10177C00D361854BDB6903F08053BB60BB680123ED
:10178C00FB75824B1B6803F48073002B18D17F4BC5
:10179C001B687E4A43F480731360FFF7C7F8386107
:1017AC0008E0FFF7C3F802463B69D31A642B01D952
:1017BC00032303E1754B1B6803F48073002BF0D0FB
:1017CC007B68DB68012B06D16F4B1B6A6E4A43F0BA
:1017DC00010313622DE07B68DB68002B0CD16A4B94
:1017EC001B6A694A23F001031362674B1B6A664A42
:1017FC0023F0040313621CE07B68DB68052B0CD11F
:10180C00614B1B6A604A43F0040313625E4B1B6A14
:10181C005D4A43F0010313620BE05B4B1B6A5A4AAF
:10182C0023F001031362584B1B6A574A23F004033D
:10183C0013627B68DB68002B15D0FFF777F83861F3
:10184C000AE0FFF773F802463B69D31A41F288327B
:10185C00934201D90323B1E04B4B1B6A03F0020303
:10186C00002BEED014E0FFF761F838610AE0FFF7C7
:10187C005DF802463B69D31A41F28832934201D992
:10188C0003239BE0404B1B6A03F00203002BEED1B9
:10189C00FB7D012B05D13C4BDB693B4A23F080538C
:1018AC00D3617B68DB69002B00F08780364B5B686B
:1018BC0003F00C03082B61D07B68DB69022B46D14B
:1018CC00334B00221A60FFF731F8386108E0FFF75C
:1018DC002DF802463B69D31A022B01D903236DE084
:1018EC00294B1B6803F00073002BF0D17B681B6A3B
:1018FC00B3F5803F08D1244B5B6823F400327B683E
:10190C009B68214913434B601F4B5B6823F4741293
:10191C007B68196A7B685B6A0B431B4913434B60FA
:10192C001B4B01221A60FFF701F8386108E0FEF743
:10193C00FDFF02463B69D31A022B01D903233DE07C
:10194C00114B1B6803F00073002BF0D035E0104BEB
:10195C0000221A60FEF7EAFF386108E0FEF7E6FFA6
:10196C0002463B69D31A022B01D9032326E0064B0E
:10197C001B6803F00073002BF0D11EE07B68DB6961
:10198C00012B07D1012319E0001002400070004028
:10199C00600042420B4B5B68FB60FB6803F48032D7
:1019AC007B681B6A9A4206D1FB6803F470127B6851
:1019BC005B6A9A4201D0012300E0002318461837D5
:1019CC00BD4680BD0010024080B584B000AF786089
:1019DC0039607B68002B01D10123D0E06A4B1B6876
:1019EC0003F007033A689A4210D9674B1B6823F03F
:1019FC00070265493B6813430B60634B1B6803F09C
:101A0C0007033A689A4201D00123B8E07B681B684F
:101A1C0003F00203002B20D07B681B6803F0040347
:101A2C00002B05D0594B5B68584A43F4E063536074
:101A3C007B681B6803F00803002B05D0534B5B68D5
:101A4C00524A43F460535360504B5B6823F0F002EE
:101A5C007B689B684D4913434B607B681B6803F0A4
:101A6C000103002B40D07B685B68012B07D1474BEF
:101A7C001B6803F40033002B15D101237FE07B6836
:101A8C005B68022B07D1414B1B6803F00073002BE2
:101A9C0009D1012373E03D4B1B6803F00203002BBB
:101AAC0001D101236BE0394B5B6823F003027B68A7
:101ABC005B68364913434B60FEF738FFF8600AE069
:101ACC00FEF734FF0246FB68D31A41F28832934288
:101ADC0001D9032353E02D4B5B6803F00C027B68A8
:101AEC005B689B009A42EBD1274B1B6803F0070302
:101AFC003A689A4210D2244B1B6823F00702224901
:101B0C003B6813430B60204B1B6803F007033A68D8
:101B1C009A4201D0012332E07B681B6803F0040376
:101B2C00002B08D0194B5B6823F4E0627B68DB6800
:101B3C00164913434B607B681B6803F00803002BAA
:101B4C0009D0124B5B6823F460527B681B69DB0085
:101B5C000E4913434B6000F021F802460B4B5B68B7
:101B6C001B0903F00F030A49CB5C22FA03F3094A61
:101B7C001360094B1B681846FEF796FE00231846A7
:101B8C001037BD4680BD00BF00200240001002404F
:101B9C00E8290008000000200400002080B487B071
:101BAC0000AF0023FB600023BB6000237B6100239C
:101BBC007B6000233B611E4B5B68FB60FB6803F0A2
:101BCC000C03042B02D0082B03D027E0194B3B61EC
:101BDC0027E0FB689B0C03F00F03174AD35C7B6078
:101BEC00FB6803F48033002B10D0114B5B685B0C4B
:101BFC0003F00103114AD35CBB607B680D4A03FB05
:101C0C0002F2BB68B2FBF3F37B6104E07B680C4A25
:101C1C0002FB03F37B617B693B6102E0054B3B619B
:101C2C0000BF3B6918461C37BD4680BC704700BFDF
:101C3C000010024000127A00F8290008082A000857
:101C4C0000093D0080B485B000AF78600A4B1B687A
:101C5C000A4AA2FB03235B0A7A6802FB03F3FB60CC
:101C6C0000BFFB685A1EFA60002BF9D100BF00BF01
:101C7C001437BD4680BC704700000020D34D621065
:101C8C0080B586B000AF786000233B610023FB6019
:101C9C007B681B6803F00103002B7DD00023FB75D0
:101CAC004F4BDB6903F08053002B0DD14C4BDB69A0
:101CBC004B4A43F08053D361494BDB6903F08053AB
:101CCC00BB60BB680123FB75464B1B6803F4807338
:101CDC00002B18D1434B1B68424A43F480731360AA
:101CEC00FEF724FE386108E0FEF720FE02463B6951
:101CFC00D31A642B01D903236DE03A4B1B6803F410
:101D0C008073002BF0D0364B1B6A03F44073FB60DE
:101D1C00FB68002B2ED07B685B6803F44073FA6879
:101D2C009A4227D02E4B1B6A23F44073FB602E4B38
:101D3C0001221A602C4B00221A60294AFB6813629C
:101D4C00FB6803F00103002B14D0FEF7EFFD3861A4
:101D5C000AE0FEF7EBFD02463B69D31A41F28832EA
:101D6C00934201D9032336E01D4B1B6A03F0020397
:101D7C00002BEED01A4B1B6A23F440727B685B6815
:101D8C00174913430B62FB7D012B05D1144BDB6907
:101D9C00134A23F08053D3617B681B6803F0020362
:101DAC00002B08D00E4B5B6823F440427B689B6889
:101DBC000B4913434B607B681B6803F01003002B2B
:101DCC0008D0074B5B6823F480027B68DB6804490E
:101DDC0013434B60002318461837BD4680BD00BF27
:101DEC0000100240007000404004424280B582B0B6
:101DFC0000AF78607B68002B01D1012341E07B6848
:101E0C0093F83D30DBB2002B06D17B68002283F8BF
:101E1C003C207868FEF72EFC7B68022283F83D207C
:101E2C007B681A687B6804331946104600F0ACFADC
:101E3C007B68012283F846207B68012283F83E20D0
:101E4C007B68012283F83F207B68012283F84020C5
:101E5C007B68012283F841207B68012283F84220B1
:101E6C007B68012283F843207B68012283F844209D
:101E7C007B68012283F845207B68012283F83D2092
:101E8C00002318460837BD4680BD80B582B000AF30
:101E9C0078607B68002B01D1012341E07B6893F8CB
:101EAC003D30DBB2002B06D17B68002283F83C204E
:101EBC00786800F039F87B68022283F83D207B6853
:101ECC001A687B6804331946104600F05DFA7B688B
:101EDC00012283F846207B68012283F83E207B6830
:101EEC00012283F83F207B68012283F840207B6825
:101EFC00012283F841207B68012283F842207B6811
:101F0C00012283F843207B68012283F844207B68FC
:101F1C00012283F845207B68012283F83D200023B1
:101F2C0018460837BD4680BD80B483B000AF7860DA
:101F3C0000BF0C37BD4680BC7047000080B584B034
:101F4C0000AF786039603B68002B09D17B6893F84F
:101F5C003E30DBB2012B14BF01230023DBB222E0A5
:101F6C003B68042B09D17B6893F83F30DBB2012B23
:101F7C0014BF01230023DBB215E03B68082B09D109
:101F8C007B6893F84030DBB2012B14BF0123002394
:101F9C00DBB208E07B6893F84130DBB2012B14BF55
:101FAC0001230023DBB2002B01D0012359E03B6855
:101FBC00002B04D17B68022283F83E2013E03B689F
:101FCC00042B04D17B68022283F83F200BE03B6892
:101FDC00082B04D17B68022283F8402003E07B6845
:101FEC00022283F841207B681B680122396818465D
:101FFC0000F040FC7B681B681C4A934207D17B684D
:10200C001B685A6C7B681B6842F400425A647B68FC
:10201C001B68164A934209D07B681B68B3F1804F4A
:10202C0004D07B681B68124A934211D17B681B68F1
:10203C009B6803F00703FB60FB68062B10D07B68E2
:10204C001B681A687B681B6842F001021A6007E083
:10205C007B681B681A687B681B6842F001021A6077
:10206C00002318461037BD4680BD00BF002C014030
:10207C000004004080B586B000AFF860B9607A60AB
:10208C000023FB75FB6893F83C30012B01D1022334
:10209C00AEE0FB68012283F83C207B680C2B00F23D
:1020AC009F8001A252F823F0E9200008ED210008DE
:1020BC00ED210008ED21000829210008ED21000880
:1020CC00ED210008ED2100086B210008ED2100082E
:1020DC00ED210008ED210008AB210008FB681B680E
:1020EC00B968184600F0A8F9FB681B689A69FB6888
:1020FC001B6842F008029A61FB681B689A69FB68CE
:10210C001B6822F004029A61FB681B689969BB6822
:10211C001A69FB681B680A439A6164E0FB681B68D8
:10212C00B968184600F0EEF9FB681B689A69FB6801
:10213C001B6842F400629A61FB681B689A69FB6831
:10214C001B6822F480629A61FB681B689969BB6802
:10215C001B691A02FB681B680A439A6143E0FB681F
:10216C001B68B968184600F037FAFB681B68DA6917
:10217C00FB681B6842F00802DA61FB681B68DA69CD
:10218C00FB681B6822F00402DA61FB681B68D969E2
:10219C00BB681A69FB681B680A43DA6123E0FB68B9
:1021AC001B68B968184600F081FAFB681B68DA698D
:1021BC00FB681B6842F40062DA61FB681B68DA6931
:1021CC00FB681B6822F48062DA61FB681B68D969C2
:1021DC00BB681B691A02FB681B680A43DA6102E0E0
:1021EC000123FB7500BFFB68002283F83C20FB7DBC
:1021FC0018461837BD4680BD80B584B000AF7860F6
:10220C0039600023FB737B6893F83C30012B01D1C0
:10221C000223B4E07B68012283F83C207B68022215
:10222C0083F83D207B681B689B68BB60BB6823F010
:10223C007703BB60BB6823F47F43BB607B681B6880
:10224C00BA689A603B681B68B3F5005F3ED0B3F583
:10225C00005F00F28780B3F5805F00F08680B3F5F5
:10226C00805F7FD8702B1AD0702B7BD8602B50D00E
:10227C00602B77D8502B3CD0502B73D8402B58D098
:10228C00402B6FD8302B64D0302B6BD8202B60D0E8
:10229C00202B67D8002B5CD0102B5AD062E07B68C7
:1022AC0018683B6899683B685A683B68DB6800F0C3
:1022BC00C2FA7B681B689B68BB60BB6843F0770302
:1022CC00BB607B681B68BA689A604FE07B681868D3
:1022DC003B6899683B685A683B68DB6800F0ABFA6E
:1022EC007B681B689A687B681B6842F480429A6022
:1022FC003CE07B6818683B6859683B68DB681A46A9
:10230C0000F022FA7B681B685021184600F079FA1D
:10231C002CE07B6818683B6859683B68DB681A4698
:10232C0000F040FA7B681B686021184600F069FADF
:10233C001CE07B6818683B6859683B68DB681A4688
:10234C0000F002FA7B681B684021184600F059FA2D
:10235C000CE07B681A683B681B681946104600F055
:10236C0050FA03E00123FB7300E000BF7B680122FD
:10237C0083F83D207B68002283F83C20FB7B1846C9
:10238C001037BD4680BD000080B485B000AF7860CA
:10239C0039607B681B68FB607B68254A934207D0D9
:1023AC007B68B3F1804F03D07B68224A934208D1FB
:1023BC00FB6823F07003FB603B685B68FA681343AF
:1023CC00FB607B681A4A934207D07B68B3F1804F5D
:1023DC0003D07B68174A934208D1FB6823F44073FF
:1023EC00FB603B68DB68FA681343FB60FB6823F017
:1023FC0080023B685B691343FB607B68FA681A6078
:10240C003B689A687B68DA623B681A687B689A62F8
:10241C007B68074A934203D13B681A697B681A634D
:10242C007B6801225A6100BF1437BD4680BC7047DF
:10243C00002C01400004004080B487B000AF7860ED
:10244C0039607B681B6A7B617B681B6A23F0010225
:10245C007B681A627B685B683B617B689B69FB608D
:10246C00FB6823F07003FB60FB6823F00303FB6045
:10247C003B681B68FA681343FB607B6923F002031B
:10248C007B613B689B687A6913437B617B681C4A60
:10249C0093420CD17B6923F008037B613B68DB68BA
:1024AC007A6913437B617B6923F004037B617B684E
:1024BC00134A934211D13B6923F480733B613B690E
:1024CC0023F400733B613B685B693A6913433B61DE
:1024DC003B689B693A6913433B617B683A695A6074
:1024EC007B68FA689A613B685A687B685A637B68B8
:1024FC007A691A6200BF1C37BD4680BC704700BFAA
:10250C00002C014080B487B000AF786039607B68E4
:10251C001B6A7B617B681B6A23F010027B681A6262
:10252C007B685B683B617B689B69FB60FB6823F4A1
:10253C00E043FB60FB6823F44073FB603B681B6863
:10254C001B02FA681343FB607B6923F020037B6159
:10255C003B689B681B017A6913437B617B681D4A4E
:10256C0093420DD17B6923F080037B613B68DB6870
:10257C001B017A6913437B617B6923F040037B6108
:10258C007B68144A934213D13B6923F480633B610B
:10259C003B6923F400633B613B685B699B003A69D0
:1025AC0013433B613B689B699B003A6913433B6156
:1025BC007B683A695A607B68FA689A613B685A682A
:1025CC007B689A637B687A691A6200BF1C37BD46C8
:1025DC0080BC7047002C014080B487B000AF78609D
:1025EC0039607B681B6A7B617B681B6A23F4807291
:1025FC007B681A627B685B683B617B68DB69FB60AC
:10260C00FB6823F07003FB60FB6823F00303FB60A3
:10261C003B681B68FA681343FB607B6923F4007307
:10262C007B613B689B681B027A6913437B617B6807
:10263C001D4A93420DD17B6923F400637B613B6897
:10264C00DB681B027A6913437B617B6923F480632B
:10265C007B617B68144A934213D13B6923F480530A
:10266C003B613B6923F400533B613B685B691B0195
:10267C003A6913433B613B689B691B013A691343FD
:10268C003B617B683A695A607B68FA68DA613B683F
:10269C005A687B68DA637B687A691A6200BF1C37F8
:1026AC00BD4680BC704700BF002C014080B487B091
:1026BC0000AF786039607B681B6A3B617B681B6A82
:1026CC0023F480527B681A627B685B687B617B6851
:1026DC00DB69FB60FB6823F4E043FB60FB6823F4DD
:1026EC004073FB603B681B681B02FA681343FB607A
:1026FC003B6923F400533B613B689B681B033A69BD
:10270C0013433B617B680F4A934209D17B6923F4E5
:10271C0080437B613B685B699B017A6913437B61F6
:10272C007B687A695A607B68FA68DA613B685A6838
:10273C007B681A647B683A691A6200BF1C37BD4615
:10274C0080BC7047002C014080B487B000AFF860AB
:10275C00B9607A60FB681B6A7B61FB681B6A23F0BB
:10276C000102FB681A62FB689B693B613B6923F0C1
:10277C00F0033B617B681B013A6913433B617B6946
:10278C0023F00A037B617A69BB6813437B61FB68A6
:10279C003A699A61FB687A691A6200BF1C37BD46B8
:1027AC0080BC704780B487B000AFF860B9607A60C5
:1027BC00FB681B6A7B61FB681B6A23F01002FB68D9
:1027CC001A62FB689B693B613B6923F470433B6174
:1027DC007B681B033A6913433B617B6923F0A003BD
:1027EC007B61BB681B017A6913437B61FB683A69A7
:1027FC009A61FB687A691A6200BF1C37BD4680BCBF
:10280C00704780B485B000AF786039607B689B6896
:10281C00FB60FB6823F07003FB603A68FB681343B2
:10282C0043F00703FB607B68FA689A6000BF1437BB
:10283C00BD4680BC704780B487B000AFF860B9600B
:10284C007A603B60FB689B687B617B6923F47F4308
:10285C007B613B681A027B681A43BB6813437A6935
:10286C0013437B61FB687A699A6000BF1C37BD46D5
:10287C0080BC704780B487B000AFF860B9607A60F4
:10288C00BB6803F01F03012202FA03F37B61FB68B0
:10289C001A6A7B69DB431A40FB681A62FB681A6A86
:1028AC00BB6803F01F03796801FA03F31A43FB6852
:1028BC001A6200BF1C37BD4680BC704780B485B01F
:1028CC0000AF786039607B6893F83C30012B01D104
:1028DC00022341E07B68012283F83C207B680222C2
:1028EC0083F83D207B681B685B68FB607B681B681A
:1028FC009B68BB60FB6823F07003FB603B681B6844
:10290C00FA681343FB607B681B68FA685A607B6843
:10291C001B68144A934209D07B681B68B3F1804F43
:10292C0004D07B681B68104A93420CD1BB6823F01F
:10293C008003BB603B685B68BA681343BB607B6811
:10294C001B68BA689A607B68012283F83D207B681B
:10295C00002283F83C20002318461437BD4680BC67
:10296C00704700BF002C01400004004003460244A5
:10297C00934200D1704703F8011BF9E770B50026AC
:10298C000C4D0D4C641BA410A64209D100F01AF892
:10299C0000260A4D0A4C641BA410A64205D170BD3A
:1029AC0055F8043B98470136EEE755F8043B984739
:1029BC000136F2E70C2A00080C2A00080C2A000841
:1029CC00102A0008F8B500BFF8BC08BC9E4670473A
:0C29DC00F8B500BFF8BC08BC9E46704770
:1029E80000000000000000000102030406070809B7
:1029F80002030405060708090A0B0C0D0E0F101038
:042A080001020000C7
:042A0C00310100088C
:042A10000D010008AC
:0C2A14000024F40010000000010000008D
:040000050800083DAA
:00000001FF
